{
  "_format": "hh-sol-artifact-1",
  "contractName": "ContractRegistry",
  "sourceName": "contracts/ContractRegistry.sol",
  "abi": [
    {
      "anonymous": false,
      "inputs": [
        {
          "indexed": true,
          "internalType": "string",
          "name": "id",
          "type": "string"
        },
        {
          "indexed": true,
          "internalType": "address",
          "name": "initiator",
          "type": "address"
        },
        {
          "indexed": true,
          "internalType": "address",
          "name": "counterparty",
          "type": "address"
        }
      ],
      "name": "ContractRegistered",
      "type": "event"
    },
    {
      "anonymous": false,
      "inputs": [
        {
          "indexed": true,
          "internalType": "string",
          "name": "id",
          "type": "string"
        },
        {
          "indexed": true,
          "internalType": "address",
          "name": "signer",
          "type": "address"
        }
      ],
      "name": "ContractSigned",
      "type": "event"
    },
    {
      "inputs": [
        {
          "internalType": "string",
          "name": "",
          "type": "string"
        }
      ],
      "name": "contracts",
      "outputs": [
        {
          "internalType": "string",
          "name": "contractHash",
          "type": "string"
        },
        {
          "internalType": "address",
          "name": "initiator",
          "type": "address"
        },
        {
          "internalType": "address",
          "name": "counterparty",
          "type": "address"
        },
        {
          "internalType": "bool",
          "name": "initiatorSigned",
          "type": "bool"
        },
        {
          "internalType": "bool",
          "name": "counterpartySigned",
          "type": "bool"
        },
        {
          "internalType": "uint256",
          "name": "createdAt",
          "type": "uint256"
        },
        {
          "internalType": "bool",
          "name": "exists",
          "type": "bool"
        }
      ],
      "stateMutability": "view",
      "type": "function"
    },
    {
      "inputs": [
        {
          "internalType": "string",
          "name": "_id",
          "type": "string"
        }
      ],
      "name": "getContract",
      "outputs": [
        {
          "components": [
            {
              "internalType": "string",
              "name": "contractHash",
              "type": "string"
            },
            {
              "internalType": "address",
              "name": "initiator",
              "type": "address"
            },
            {
              "internalType": "address",
              "name": "counterparty",
              "type": "address"
            },
            {
              "internalType": "bool",
              "name": "initiatorSigned",
              "type": "bool"
            },
            {
              "internalType": "bool",
              "name": "counterpartySigned",
              "type": "bool"
            },
            {
              "internalType": "uint256",
              "name": "createdAt",
              "type": "uint256"
            },
            {
              "internalType": "bool",
              "name": "exists",
              "type": "bool"
            }
          ],
          "internalType": "struct ContractRegistry.ContractData",
          "name": "",
          "type": "tuple"
        }
      ],
      "stateMutability": "view",
      "type": "function"
    },
    {
      "inputs": [
        {
          "internalType": "string",
          "name": "_id",
          "type": "string"
        },
        {
          "internalType": "string",
          "name": "_hash",
          "type": "string"
        },
        {
          "internalType": "address",
          "name": "_counterparty",
          "type": "address"
        }
      ],
      "name": "registerContract",
      "outputs": [],
      "stateMutability": "nonpayable",
      "type": "function"
    },
    {
      "inputs": [
        {
          "internalType": "string",
          "name": "_id",
          "type": "string"
        }
      ],
      "name": "signContract",
      "outputs": [],
      "stateMutability": "nonpayable",
      "type": "function"
    },
    {
      "inputs": [
        {
          "internalType": "address",
          "name": "",
          "type": "address"
        },
        {
          "internalType": "uint256",
          "name": "",
          "type": "uint256"
        }
      ],
      "name": "userContracts",
      "outputs": [
        {
          "internalType": "string",
          "name": "",
          "type": "string"
        }
      ],
      "stateMutability": "view",
      "type": "function"
    }
  ],
  "bytecode": "0x608060405234801561001057600080fd5b50611854806100206000396000f3fe608060405234801561001057600080fd5b50600436106100575760003560e01c8063358177731461005c5780638c5b83851461008c578063b789003d146100c2578063c63576e4146100f2578063fc8315811461010e575b600080fd5b61007660048036038101906100719190610e12565b61012a565b6040516100839190610feb565b60405180910390f35b6100a660048036038101906100a19190610e12565b610369565b6040516100b99796959493929190611084565b60405180910390f35b6100dc60048036038101906100d79190611152565b6104b0565b6040516100e99190611192565b60405180910390f35b61010c60048036038101906101079190610e12565b610569565b005b610128600480360381019061012391906111b4565b61087c565b005b610132610c49565b600082604051610142919061127b565b908152602001604051809103902060040160009054906101000a900460ff166101a0576040517f08c379a0000000000000000000000000000000000000000000000000000000008152600401610197906112de565b60405180910390fd5b6000826040516101b0919061127b565b90815260200160405180910390206040518060e00160405290816000820180546101d99061132d565b80601f01602080910402602001604051908101604052809291908181526020018280546102059061132d565b80156102525780601f1061022757610100808354040283529160200191610252565b820191906000526020600020905b81548152906001019060200180831161023557829003601f168201915b505050505081526020016001820160009054906101000a900473ffffffffffffffffffffffffffffffffffffffff1673ffffffffffffffffffffffffffffffffffffffff1673ffffffffffffffffffffffffffffffffffffffff1681526020016002820160009054906101000a900473ffffffffffffffffffffffffffffffffffffffff1673ffffffffffffffffffffffffffffffffffffffff1673ffffffffffffffffffffffffffffffffffffffff1681526020016002820160149054906101000a900460ff161515151581526020016002820160159054906101000a900460ff16151515158152602001600382015481526020016004820160009054906101000a900460ff1615151515815250509050919050565b6000818051602081018201805184825260208301602085012081835280955050505050506000915090508060000180546103a29061132d565b80601f01602080910402602001604051908101604052809291908181526020018280546103ce9061132d565b801561041b5780601f106103f05761010080835404028352916020019161041b565b820191906000526020600020905b8154815290600101906020018083116103fe57829003601f168201915b5050505050908060010160009054906101000a900473ffffffffffffffffffffffffffffffffffffffff16908060020160009054906101000a900473ffffffffffffffffffffffffffffffffffffffff16908060020160149054906101000a900460ff16908060020160159054906101000a900460ff16908060030154908060040160009054906101000a900460ff16905087565b600160205281600052604060002081815481106104cc57600080fd5b906000526020600020016000915091505080546104e89061132d565b80601f01602080910402602001604051908101604052809291908181526020018280546105149061132d565b80156105615780601f1061053657610100808354040283529160200191610561565b820191906000526020600020905b81548152906001019060200180831161054457829003601f168201915b505050505081565b600081604051610579919061127b565b908152602001604051809103902060040160009054906101000a900460ff166105d7576040517f08c379a00000000000000000000000000000000000000000000000000000000081526004016105ce906112de565b60405180910390fd5b600080826040516105e8919061127b565b908152602001604051809103902090508060010160009054906101000a900473ffffffffffffffffffffffffffffffffffffffff1673ffffffffffffffffffffffffffffffffffffffff163373ffffffffffffffffffffffffffffffffffffffff1614806106a557508060020160009054906101000a900473ffffffffffffffffffffffffffffffffffffffff1673ffffffffffffffffffffffffffffffffffffffff163373ffffffffffffffffffffffffffffffffffffffff16145b6106e4576040517f08c379a00000000000000000000000000000000000000000000000000000000081526004016106db906113aa565b60405180910390fd5b8060010160009054906101000a900473ffffffffffffffffffffffffffffffffffffffff1673ffffffffffffffffffffffffffffffffffffffff163373ffffffffffffffffffffffffffffffffffffffff16036107af578060020160149054906101000a900460ff161561078d576040517f08c379a000000000000000000000000000000000000000000000000000000000815260040161078490611416565b60405180910390fd5b60018160020160146101000a81548160ff02191690831515021790555061081f565b8060020160159054906101000a900460ff1615610801576040517f08c379a00000000000000000000000000000000000000000000000000000000081526004016107f890611482565b60405180910390fd5b60018160020160156101000a81548160ff0219169083151502179055505b3373ffffffffffffffffffffffffffffffffffffffff1682604051610844919061127b565b60405180910390207f4395a2a81bd9970c2145f7a67a3d9726210c294714402030a5c33a6a538df8d660405160405180910390a35050565b60008360405161088c919061127b565b908152602001604051809103902060040160009054906101000a900460ff16156108eb576040517f08c379a00000000000000000000000000000000000000000000000000000000081526004016108e2906114ee565b60405180910390fd5b8073ffffffffffffffffffffffffffffffffffffffff163373ffffffffffffffffffffffffffffffffffffffff1603610959576040517f08c379a000000000000000000000000000000000000000000000000000000000815260040161095090611580565b60405180910390fd5b6040518060e001604052808381526020013373ffffffffffffffffffffffffffffffffffffffff1681526020018273ffffffffffffffffffffffffffffffffffffffff168152602001600015158152602001600015158152602001428152602001600115158152506000846040516109d1919061127b565b908152602001604051809103902060008201518160000190816109f4919061174c565b5060208201518160010160006101000a81548173ffffffffffffffffffffffffffffffffffffffff021916908373ffffffffffffffffffffffffffffffffffffffff16021790555060408201518160020160006101000a81548173ffffffffffffffffffffffffffffffffffffffff021916908373ffffffffffffffffffffffffffffffffffffffff16021790555060608201518160020160146101000a81548160ff02191690831515021790555060808201518160020160156101000a81548160ff02191690831515021790555060a0820151816003015560c08201518160040160006101000a81548160ff021916908315150217905550905050600160003373ffffffffffffffffffffffffffffffffffffffff1673ffffffffffffffffffffffffffffffffffffffff16815260200190815260200160002083908060018154018082558091505060019003906000526020600020016000909190919091509081610b61919061174c565b50600160008273ffffffffffffffffffffffffffffffffffffffff1673ffffffffffffffffffffffffffffffffffffffff16815260200190815260200160002083908060018154018082558091505060019003906000526020600020016000909190919091509081610bd3919061174c565b508073ffffffffffffffffffffffffffffffffffffffff163373ffffffffffffffffffffffffffffffffffffffff1684604051610c10919061127b565b60405180910390207f43f93ae33b60d644b7e1a7d3938679bdc5cc6f83a8e32491daa3f66493d8442b60405160405180910390a4505050565b6040518060e0016040528060608152602001600073ffffffffffffffffffffffffffffffffffffffff168152602001600073ffffffffffffffffffffffffffffffffffffffff168152602001600015158152602001600015158152602001600081526020016000151581525090565b6000604051905090565b600080fd5b600080fd5b600080fd5b600080fd5b6000601f19601f8301169050919050565b7f4e487b7100000000000000000000000000000000000000000000000000000000600052604160045260246000fd5b610d1f82610cd6565b810181811067ffffffffffffffff82111715610d3e57610d3d610ce7565b5b80604052505050565b6000610d51610cb8565b9050610d5d8282610d16565b919050565b600067ffffffffffffffff821115610d7d57610d7c610ce7565b5b610d8682610cd6565b9050602081019050919050565b82818337600083830152505050565b6000610db5610db084610d62565b610d47565b905082815260208101848484011115610dd157610dd0610cd1565b5b610ddc848285610d93565b509392505050565b600082601f830112610df957610df8610ccc565b5b8135610e09848260208601610da2565b91505092915050565b600060208284031215610e2857610e27610cc2565b5b600082013567ffffffffffffffff811115610e4657610e45610cc7565b5b610e5284828501610de4565b91505092915050565b600081519050919050565b600082825260208201905092915050565b60005b83811015610e95578082015181840152602081019050610e7a565b60008484015250505050565b6000610eac82610e5b565b610eb68185610e66565b9350610ec6818560208601610e77565b610ecf81610cd6565b840191505092915050565b600073ffffffffffffffffffffffffffffffffffffffff82169050919050565b6000610f0582610eda565b9050919050565b610f1581610efa565b82525050565b60008115159050919050565b610f3081610f1b565b82525050565b6000819050919050565b610f4981610f36565b82525050565b600060e0830160008301518482036000860152610f6c8282610ea1565b9150506020830151610f816020860182610f0c565b506040830151610f946040860182610f0c565b506060830151610fa76060860182610f27565b506080830151610fba6080860182610f27565b5060a0830151610fcd60a0860182610f40565b5060c0830151610fe060c0860182610f27565b508091505092915050565b600060208201905081810360008301526110058184610f4f565b905092915050565b600082825260208201905092915050565b600061102982610e5b565b611033818561100d565b9350611043818560208601610e77565b61104c81610cd6565b840191505092915050565b61106081610efa565b82525050565b61106f81610f1b565b82525050565b61107e81610f36565b82525050565b600060e082019050818103600083015261109e818a61101e565b90506110ad6020830189611057565b6110ba6040830188611057565b6110c76060830187611066565b6110d46080830186611066565b6110e160a0830185611075565b6110ee60c0830184611066565b98975050505050505050565b61110381610efa565b811461110e57600080fd5b50565b600081359050611120816110fa565b92915050565b61112f81610f36565b811461113a57600080fd5b50565b60008135905061114c81611126565b92915050565b6000806040838503121561116957611168610cc2565b5b600061117785828601611111565b92505060206111888582860161113d565b9150509250929050565b600060208201905081810360008301526111ac818461101e565b905092915050565b6000806000606084860312156111cd576111cc610cc2565b5b600084013567ffffffffffffffff8111156111eb576111ea610cc7565b5b6111f786828701610de4565b935050602084013567ffffffffffffffff81111561121857611217610cc7565b5b61122486828701610de4565b925050604061123586828701611111565b9150509250925092565b600081905092915050565b600061125582610e5b565b61125f818561123f565b935061126f818560208601610e77565b80840191505092915050565b6000611287828461124a565b915081905092915050565b7f436f6e747261637420646f6573206e6f74206578697374000000000000000000600082015250565b60006112c860178361100d565b91506112d382611292565b602082019050919050565b600060208201905081810360008301526112f7816112bb565b9050919050565b7f4e487b7100000000000000000000000000000000000000000000000000000000600052602260045260246000fd5b6000600282049050600182168061134557607f821691505b602082108103611358576113576112fe565b5b50919050565b7f4e6f74206120706172747920746f207468697320636f6e747261637400000000600082015250565b6000611394601c8361100d565b915061139f8261135e565b602082019050919050565b600060208201905081810360008301526113c381611387565b9050919050565b7f416c7265616479207369676e656420627920696e69746961746f720000000000600082015250565b6000611400601b8361100d565b915061140b826113ca565b602082019050919050565b6000602082019050818103600083015261142f816113f3565b9050919050565b7f416c7265616479207369676e656420627920636f756e74657270617274790000600082015250565b600061146c601e8361100d565b915061147782611436565b602082019050919050565b6000602082019050818103600083015261149b8161145f565b9050919050565b7f436f6e747261637420494420616c726561647920657869737473000000000000600082015250565b60006114d8601a8361100d565b91506114e3826114a2565b602082019050919050565b60006020820190508181036000830152611507816114cb565b9050919050565b7f436f756e74657270617274792063616e6e6f742062652073616d65206173206960008201527f6e69746961746f72000000000000000000000000000000000000000000000000602082015250565b600061156a60288361100d565b91506115758261150e565b604082019050919050565b600060208201905081810360008301526115998161155d565b9050919050565b60008190508160005260206000209050919050565b60006020601f8301049050919050565b600082821b905092915050565b6000600883026116027fffffffffffffffffffffffffffffffffffffffffffffffffffffffffffffffff826115c5565b61160c86836115c5565b95508019841693508086168417925050509392505050565b6000819050919050565b600061164961164461163f84610f36565b611624565b610f36565b9050919050565b6000819050919050565b6116638361162e565b61167761166f82611650565b8484546115d2565b825550505050565b600090565b61168c61167f565b61169781848461165a565b505050565b5b818110156116bb576116b0600082611684565b60018101905061169d565b5050565b601f821115611700576116d1816115a0565b6116da846115b5565b810160208510156116e9578190505b6116fd6116f5856115b5565b83018261169c565b50505b505050565b600082821c905092915050565b600061172360001984600802611705565b1980831691505092915050565b600061173c8383611712565b9150826002028217905092915050565b61175582610e5b565b67ffffffffffffffff81111561176e5761176d610ce7565b5b611778825461132d565b6117838282856116bf565b600060209050601f8311600181146117b657600084156117a4578287015190505b6117ae8582611730565b865550611816565b601f1984166117c4866115a0565b60005b828110156117ec578489015182556001820191506020850194506020810190506117c7565b868310156118095784890151611805601f891682611712565b8355505b6001600288020188555050505b50505050505056fea26469706673582212204f4929ac3638cb4b61dee433b694b8adefb88a59e8857242ae78688f6603581264736f6c63430008180033",
  "linkReferences": {},
  "deployedLinkReferences": {}
}