{"contracts/ContractRegistry.sol":{"ContractRegistry":{"abi":[{"anonymous":false,"inputs":[{"indexed":true,"internalType":"string","name":"id","type":"string"}],"name":"ContractCompleted","type":"event"},{"anonymous":false,"inputs":[{"indexed":true,"internalType":"string","name":"id","type":"string"},{"indexed":true,"internalType":"address","name":"initiator","type":"address"},{"indexed":true,"internalType":"address","name":"counterparty","type":"address"}],"name":"ContractRegistered","type":"event"},{"anonymous":false,"inputs":[{"indexed":true,"internalType":"string","name":"id","type":"string"},{"indexed":true,"internalType":"address","name":"signer","type":"address"}],"name":"ContractSigned","type":"event"},{"anonymous":false,"inputs":[{"indexed":true,"internalType":"string","name":"id","type":"string"},{"indexed":true,"internalType":"address","name":"payer","type":"address"},{"indexed":false,"internalType":"uint256","name":"amount","type":"uint256"}],"name":"PaymentMade","type":"event"},{"inputs":[{"internalType":"string","name":"","type":"string"}],"name":"contracts","outputs":[{"internalType":"string","name":"contractHash","type":"string"},{"internalType":"address","name":"initiator","type":"address"},{"internalType":"address","name":"counterparty","type":"address"},{"internalType":"uint256","name":"initiatorAmount","type":"uint256"},{"internalType":"uint256","name":"counterpartyAmount","type":"uint256"},{"internalType":"bool","name":"initiatorSigned","type":"bool"},{"internalType":"bool","name":"counterpartySigned","type":"bool"},{"internalType":"bool","name":"initiatorPaid","type":"bool"},{"internalType":"bool","name":"counterpartyPaid","type":"bool"},{"internalType":"uint256","name":"createdAt","type":"uint256"},{"internalType":"bool","name":"exists","type":"bool"}],"stateMutability":"view","type":"function"},{"inputs":[{"internalType":"string","name":"_id","type":"string"}],"name":"getContract","outputs":[{"components":[{"internalType":"string","name":"contractHash","type":"string"},{"internalType":"address","name":"initiator","type":"address"},{"internalType":"address","name":"counterparty","type":"address"},{"internalType":"uint256","name":"initiatorAmount","type":"uint256"},{"internalType":"uint256","name":"counterpartyAmount","type":"uint256"},{"internalType":"bool","name":"initiatorSigned","type":"bool"},{"internalType":"bool","name":"counterpartySigned","type":"bool"},{"internalType":"bool","name":"initiatorPaid","type":"bool"},{"internalType":"bool","name":"counterpartyPaid","type":"bool"},{"internalType":"uint256","name":"createdAt","type":"uint256"},{"internalType":"bool","name":"exists","type":"bool"}],"internalType":"struct ContractRegistry.ContractData","name":"","type":"tuple"}],"stateMutability":"view","type":"function"},{"inputs":[{"internalType":"string","name":"_id","type":"string"}],"name":"isFullyPaid","outputs":[{"internalType":"bool","name":"","type":"bool"}],"stateMutability":"view","type":"function"},{"inputs":[{"internalType":"string","name":"_id","type":"string"}],"name":"makePayment","outputs":[],"stateMutability":"payable","type":"function"},{"inputs":[{"internalType":"string","name":"_id","type":"string"},{"internalType":"string","name":"_hash","type":"string"},{"internalType":"address","name":"_counterparty","type":"address"},{"internalType":"uint256","name":"_initiatorAmount","type":"uint256"},{"internalType":"uint256","name":"_counterpartyAmount","type":"uint256"}],"name":"registerContract","outputs":[],"stateMutability":"nonpayable","type":"function"},{"inputs":[{"internalType":"string","name":"_id","type":"string"}],"name":"signContract","outputs":[],"stateMutability":"nonpayable","type":"function"},{"inputs":[{"internalType":"address","name":"","type":"address"},{"internalType":"uint256","name":"","type":"uint256"}],"name":"userContracts","outputs":[{"internalType":"string","name":"","type":"string"}],"stateMutability":"view","type":"function"}],"evm":{"bytecode":{"linkReferences":{},"object":"608060405234801561001057600080fd5b50612988806100206000396000f3fe6080604052600436106100705760003560e01c8063b789003d1161004e578063b789003d14610136578063c3a538f114610173578063c63576e41461019c578063f9e823e6146101c557610070565b806335817773146100755780638c5b8385146100b2578063b0fc7f8c146100f9575b600080fd5b34801561008157600080fd5b5061009c60048036038101906100979190611d15565b6101e1565b6040516100a99190611f41565b60405180910390f35b3480156100be57600080fd5b506100d960048036038101906100d49190611d15565b6104f7565b6040516100f09b9a99989796959493929190611fda565b60405180910390f35b34801561010557600080fd5b50610120600480360381019061011b9190611d15565b610670565b60405161012d919061208c565b60405180910390f35b34801561014257600080fd5b5061015d600480360381019061015891906120ff565b6107e9565b60405161016a919061213f565b60405180910390f35b34801561017f57600080fd5b5061019a60048036038101906101959190612161565b6108a2565b005b3480156101a857600080fd5b506101c360048036038101906101be9190611d15565b610e27565b005b6101df60048036038101906101da9190611d15565b61138e565b005b6101e9611b2b565b6101fd674819f994e333afd360c01b611b1d565b61021167066538e0128dd22860c01b611b1d565b6102256767832c908033974660c01b611b1d565b6102396710306b9c6284e38b60c01b611b1d565b6000826040516102499190612250565b908152602001604051809103902060070160009054906101000a900460ff166102a7576040517f08c379a000000000000000000000000000000000000000000000000000000000815260040161029e906122b3565b60405180910390fd5b6102bb6719e1fa2ecffd957660c01b611b1d565b6102cf6712475f14959e62c060c01b611b1d565b6102e3679f23083dcfe2545760c01b611b1d565b6000826040516102f39190612250565b90815260200160405180910390206040518061016001604052908160008201805461031d90612302565b80601f016020809104026020016040519081016040528092919081815260200182805461034990612302565b80156103965780601f1061036b57610100808354040283529160200191610396565b820191906000526020600020905b81548152906001019060200180831161037957829003601f168201915b505050505081526020016001820160009054906101000a900473ffffffffffffffffffffffffffffffffffffffff1673ffffffffffffffffffffffffffffffffffffffff1673ffffffffffffffffffffffffffffffffffffffff1681526020016002820160009054906101000a900473ffffffffffffffffffffffffffffffffffffffff1673ffffffffffffffffffffffffffffffffffffffff1673ffffffffffffffffffffffffffffffffffffffff16815260200160038201548152602001600482015481526020016005820160009054906101000a900460ff161515151581526020016005820160019054906101000a900460ff161515151581526020016005820160029054906101000a900460ff161515151581526020016005820160039054906101000a900460ff16151515158152602001600682015481526020016007820160009054906101000a900460ff1615151515815250509050919050565b60008180516020810182018051848252602083016020850120818352809550505050505060009150905080600001805461053090612302565b80601f016020809104026020016040519081016040528092919081815260200182805461055c90612302565b80156105a95780601f1061057e576101008083540402835291602001916105a9565b820191906000526020600020905b81548152906001019060200180831161058c57829003601f168201915b5050505050908060010160009054906101000a900473ffffffffffffffffffffffffffffffffffffffff16908060020160009054906101000a900473ffffffffffffffffffffffffffffffffffffffff16908060030154908060040154908060050160009054906101000a900460ff16908060050160019054906101000a900460ff16908060050160029054906101000a900460ff16908060050160039054906101000a900460ff16908060060154908060070160009054906101000a900460ff1690508b565b600061068667435c2fc285efbc2b60c01b611b1d565b61069a67f06408eb86fcc4f960c01b611b1d565b6106ae675c4efd158726d64660c01b611b1d565b6106c267306cc5db03cf38c860c01b611b1d565b6000826040516106d29190612250565b908152602001604051809103902060070160009054906101000a900460ff16610730576040517f08c379a0000000000000000000000000000000000000000000000000000000008152600401610727906122b3565b60405180910390fd5b61074467aa5f8f09631fddff60c01b611b1d565b61075867c48a0e3fdaaf1f6d60c01b611b1d565b61076c67eea418b6088bec9a60c01b611b1d565b6000808360405161077d9190612250565b908152602001604051809103902090506107a1671a3e06cb7a3247a960c01b611b1d565b6107b567973db224f4b905dd60c01b611b1d565b8060050160029054906101000a900460ff1680156107e157508060050160039054906101000a900460ff165b915050919050565b6001602052816000526040600020818154811061080557600080fd5b9060005260206000200160009150915050805461082190612302565b80601f016020809104026020016040519081016040528092919081815260200182805461084d90612302565b801561089a5780601f1061086f5761010080835404028352916020019161089a565b820191906000526020600020905b81548152906001019060200180831161087d57829003601f168201915b505050505081565b6108b6677bdf5655fe14195b60c01b611b1d565b6108ca67d83a201faa93bab360c01b611b1d565b6108de67615911d32851cadd60c01b611b1d565b6108f2674113cfba152f0f3b60c01b611b1d565b6000856040516109029190612250565b908152602001604051809103902060070160009054906101000a900460ff1615610961576040517f08c379a00000000000000000000000000000000000000000000000000000000081526004016109589061237f565b60405180910390fd5b610975674956dc968f4f2fc760c01b611b1d565b61098967040c6cba63f3c4a560c01b611b1d565b61099d672cd9d3b73cb3ffa760c01b611b1d565b6109b1677b5fb60619860fe660c01b611b1d565b8273ffffffffffffffffffffffffffffffffffffffff163373ffffffffffffffffffffffffffffffffffffffff1603610a1f576040517f08c379a0000000000000000000000000000000000000000000000000000000008152600401610a1690612411565b60405180910390fd5b610a3367c530c6fc5d4c409560c01b611b1d565b610a476767f072f73cb06f1b60c01b611b1d565b6040518061016001604052808581526020013373ffffffffffffffffffffffffffffffffffffffff1681526020018473ffffffffffffffffffffffffffffffffffffffff16815260200183815260200182815260200160001515815260200160001515815260200160001515815260200160001515815260200142815260200160011515815250600086604051610ade9190612250565b90815260200160405180910390206000820151816000019081610b0191906125dd565b5060208201518160010160006101000a81548173ffffffffffffffffffffffffffffffffffffffff021916908373ffffffffffffffffffffffffffffffffffffffff16021790555060408201518160020160006101000a81548173ffffffffffffffffffffffffffffffffffffffff021916908373ffffffffffffffffffffffffffffffffffffffff160217905550606082015181600301556080820151816004015560a08201518160050160006101000a81548160ff02191690831515021790555060c08201518160050160016101000a81548160ff02191690831515021790555060e08201518160050160026101000a81548160ff0219169083151502179055506101008201518160050160036101000a81548160ff02191690831515021790555061012082015181600601556101408201518160070160006101000a81548160ff021916908315150217905550905050610c6867a0c315995a59518d60c01b611b1d565b610c7c67440dbd76730233a660c01b611b1d565b600160003373ffffffffffffffffffffffffffffffffffffffff1673ffffffffffffffffffffffffffffffffffffffff16815260200190815260200160002085908060018154018082558091505060019003906000526020600020016000909190919091509081610ced91906125dd565b50610d02673255e1817c473ede60c01b611b1d565b610d1667a919fd40c74abd0b60c01b611b1d565b600160008473ffffffffffffffffffffffffffffffffffffffff1673ffffffffffffffffffffffffffffffffffffffff16815260200190815260200160002085908060018154018082558091505060019003906000526020600020016000909190919091509081610d8791906125dd565b50610d9c6763b40f06204eeaa760c01b611b1d565b610db06763d808ed9774742960c01b611b1d565b8273ffffffffffffffffffffffffffffffffffffffff163373ffffffffffffffffffffffffffffffffffffffff1686604051610dec9190612250565b60405180910390207f43f93ae33b60d644b7e1a7d3938679bdc5cc6f83a8e32491daa3f66493d8442b60405160405180910390a45050505050565b610e3b6774f6d261b4159aef60c01b611b1d565b610e4f67e7ac19d68260051260c01b611b1d565b610e63675c46ebe78ef5294560c01b611b1d565b610e776722ea704df5c5096160c01b611b1d565b600081604051610e879190612250565b908152602001604051809103902060070160009054906101000a900460ff16610ee5576040517f08c379a0000000000000000000000000000000000000000000000000000000008152600401610edc906122b3565b60405180910390fd5b610ef96723ad830aeee2c21d60c01b611b1d565b610f0d676eea5457fc6107cc60c01b611b1d565b610f21679b10e1339802102c60c01b611b1d565b60008082604051610f329190612250565b90815260200160405180910390209050610f56674cb2672ce20ea7a160c01b611b1d565b610f6a67eee22aeb7a32f9d760c01b611b1d565b610f7e67fbf953819f0c0d9c60c01b611b1d565b8060010160009054906101000a900473ffffffffffffffffffffffffffffffffffffffff1673ffffffffffffffffffffffffffffffffffffffff163373ffffffffffffffffffffffffffffffffffffffff16148015610fed5750610fec67e47e91cae11b6ba260c01b611b20565b5b8061106357508060020160009054906101000a900473ffffffffffffffffffffffffffffffffffffffff1673ffffffffffffffffffffffffffffffffffffffff163373ffffffffffffffffffffffffffffffffffffffff1614801561106257506110616719cadf141af6cf9c60c01b611b20565b5b5b6110a2576040517f08c379a0000000000000000000000000000000000000000000000000000000008152600401611099906126fb565b60405180910390fd5b6110b667446e92b8e5623eeb60c01b611b1d565b6110ca67106515ec6e80b8ac60c01b611b1d565b6110de6740719dfcd089479260c01b611b1d565b8060010160009054906101000a900473ffffffffffffffffffffffffffffffffffffffff1673ffffffffffffffffffffffffffffffffffffffff163373ffffffffffffffffffffffffffffffffffffffff160361122157611149678410f483fcfa32fc60c01b611b1d565b61115d679acce5f8f20d0cfd60c01b611b1d565b611171678ad595f77153eda160c01b611b1d565b611185670c52dad5ab5980de60c01b611b1d565b8060050160009054906101000a900460ff16156111d7576040517f08c379a00000000000000000000000000000000000000000000000000000000081526004016111ce90612767565b60405180910390fd5b6111eb6741e220e4787e19db60c01b611b1d565b6111ff67fe25ef178445cb9760c01b611b1d565b60018160050160006101000a81548160ff021916908315150217905550611309565b61123567ccecc379593866bf60c01b611b1d565b61124967d74803fd9e7fa8e260c01b611b1d565b61125d67b2b77cc9ad2eb33a60c01b611b1d565b611271673e8bc288234b520860c01b611b1d565b8060050160019054906101000a900460ff16156112c3576040517f08c379a00000000000000000000000000000000000000000000000000000000081526004016112ba906127d3565b60405180910390fd5b6112d7675e042d99f7cba06760c01b611b1d565b6112eb67a9b8eb59cb3e658460c01b611b1d565b60018160050160016101000a81548160ff0219169083151502179055505b61131d67405c009ade2daa1d60c01b611b1d565b61133167a2a8350ee468350f60c01b611b1d565b3373ffffffffffffffffffffffffffffffffffffffff16826040516113569190612250565b60405180910390207f4395a2a81bd9970c2145f7a67a3d9726210c294714402030a5c33a6a538df8d660405160405180910390a35050565b6113a26738124b916fbe2c0960c01b611b1d565b6113b6676063c6387e53f78d60c01b611b1d565b6113ca6763a58b3cb35831f060c01b611b1d565b6113de6778c486a7830cfd5760c01b611b1d565b6000816040516113ee9190612250565b908152602001604051809103902060070160009054906101000a900460ff1661144c576040517f08c379a0000000000000000000000000000000000000000000000000000000008152600401611443906122b3565b60405180910390fd5b611460679079ab1eae23662460c01b611b1d565b6114746748432545be1aa54460c01b611b1d565b61148867d95dabde3d2af49660c01b611b1d565b600080826040516114999190612250565b908152602001604051809103902090506114bd67572ac945ad1625ba60c01b611b1d565b6114d1674b174d817084955c60c01b611b1d565b6114e567c7bbb7e58900f75e60c01b611b1d565b8060010160009054906101000a900473ffffffffffffffffffffffffffffffffffffffff1673ffffffffffffffffffffffffffffffffffffffff163373ffffffffffffffffffffffffffffffffffffffff16148015611554575061155367ecdf86b46286c75b60c01b611b20565b5b806115ca57508060020160009054906101000a900473ffffffffffffffffffffffffffffffffffffffff1673ffffffffffffffffffffffffffffffffffffffff163373ffffffffffffffffffffffffffffffffffffffff161480156115c957506115c8671768de6f25c29ead60c01b611b20565b5b5b611609576040517f08c379a0000000000000000000000000000000000000000000000000000000008152600401611600906126fb565b60405180910390fd5b61161d6787dea25900e6143b60c01b611b1d565b6116316722a79fef3ef41b0d60c01b611b1d565b6116456760efe8ad73bb4f4a60c01b611b1d565b8060010160009054906101000a900473ffffffffffffffffffffffffffffffffffffffff1673ffffffffffffffffffffffffffffffffffffffff163373ffffffffffffffffffffffffffffffffffffffff160361181e576116b067cb90125a3ba74d8e60c01b611b1d565b6116c4676bbbff9266e69cab60c01b611b1d565b6116d867deb0c72364ac07a360c01b611b1d565b6116ec67028beffa09e64e1160c01b611b1d565b8060050160029054906101000a900460ff161561173e576040517f08c379a00000000000000000000000000000000000000000000000000000000081526004016117359061283f565b60405180910390fd5b61175267d0f4c49e25b7024f60c01b611b1d565b6117666794974b1dbf2d844060c01b611b1d565b61177a6758d85901ec26815460c01b611b1d565b61178e67d849171b761260d760c01b611b1d565b806003015434146117d4576040517f08c379a00000000000000000000000000000000000000000000000000000000081526004016117cb906128ab565b60405180910390fd5b6117e867ab527eccb73562ea60c01b611b1d565b6117fc67ccd847b6048efa2860c01b611b1d565b60018160050160026101000a81548160ff02191690831515021790555061199c565b611832671e40e473eafd2e8d60c01b611b1d565b61184667957896c1c5af143c60c01b611b1d565b61185a67af7e541f10e8399a60c01b611b1d565b61186e67f5f1a3d783db233f60c01b611b1d565b8060050160039054906101000a900460ff16156118c0576040517f08c379a00000000000000000000000000000000000000000000000000000000081526004016118b790612917565b60405180910390fd5b6118d46726e6ed2363c4edd760c01b611b1d565b6118e867fc2ace6a59c412f560c01b611b1d565b6118fc67c43c105e6cc7ebea60c01b611b1d565b6119106779417095c20d439f60c01b611b1d565b80600401543414611956576040517f08c379a000000000000000000000000000000000000000000000000000000000815260040161194d906128ab565b60405180910390fd5b61196a677ad433e544ee35a960c01b611b1d565b61197e67d4d976dbd211550960c01b611b1d565b60018160050160036101000a81548160ff0219169083151502179055505b6119b067b8a44b61f0c7840360c01b611b1d565b6119c467f3806216f40af1e560c01b611b1d565b3373ffffffffffffffffffffffffffffffffffffffff16826040516119e99190612250565b60405180910390207fa4063949d46df8966b0b0da701810cd0898aa91bbd685924f99e15a878b5b9c734604051611a209190612937565b60405180910390a3611a3c679483c66d1dfcaecf60c01b611b1d565b611a50671d70ca622eb9d8ec60c01b611b1d565b8060050160029054906101000a900460ff168015611a7c57508060050160039054906101000a900460ff165b15611b0457611a9567861190ede0d129f160c01b611b1d565b611aa967a78dfdea9eb3dbed60c01b611b1d565b611abd672dbe107efe60f5b960c01b611b1d565b81604051611acb9190612250565b60405180910390207f72fb0913c7891fa0dec22e84667a3c8b7836815a804d0885bdcff67898b2709560405160405180910390a2611b19565b611b1867b2390c1bb6a6115160c01b611b1d565b5b5050565b50565b600060019050919050565b60405180610160016040528060608152602001600073ffffffffffffffffffffffffffffffffffffffff168152602001600073ffffffffffffffffffffffffffffffffffffffff1681526020016000815260200160008152602001600015158152602001600015158152602001600015158152602001600015158152602001600081526020016000151581525090565b6000604051905090565b600080fd5b600080fd5b600080fd5b600080fd5b6000601f19601f8301169050919050565b7f4e487b7100000000000000000000000000000000000000000000000000000000600052604160045260246000fd5b611c2282611bd9565b810181811067ffffffffffffffff82111715611c4157611c40611bea565b5b80604052505050565b6000611c54611bbb565b9050611c608282611c19565b919050565b600067ffffffffffffffff821115611c8057611c7f611bea565b5b611c8982611bd9565b9050602081019050919050565b82818337600083830152505050565b6000611cb8611cb384611c65565b611c4a565b905082815260208101848484011115611cd457611cd3611bd4565b5b611cdf848285611c96565b509392505050565b600082601f830112611cfc57611cfb611bcf565b5b8135611d0c848260208601611ca5565b91505092915050565b600060208284031215611d2b57611d2a611bc5565b5b600082013567ffffffffffffffff811115611d4957611d48611bca565b5b611d5584828501611ce7565b91505092915050565b600081519050919050565b600082825260208201905092915050565b60005b83811015611d98578082015181840152602081019050611d7d565b60008484015250505050565b6000611daf82611d5e565b611db98185611d69565b9350611dc9818560208601611d7a565b611dd281611bd9565b840191505092915050565b600073ffffffffffffffffffffffffffffffffffffffff82169050919050565b6000611e0882611ddd565b9050919050565b611e1881611dfd565b82525050565b6000819050919050565b611e3181611e1e565b82525050565b60008115159050919050565b611e4c81611e37565b82525050565b6000610160830160008301518482036000860152611e708282611da4565b9150506020830151611e856020860182611e0f565b506040830151611e986040860182611e0f565b506060830151611eab6060860182611e28565b506080830151611ebe6080860182611e28565b5060a0830151611ed160a0860182611e43565b5060c0830151611ee460c0860182611e43565b5060e0830151611ef760e0860182611e43565b50610100830151611f0c610100860182611e43565b50610120830151611f21610120860182611e28565b50610140830151611f36610140860182611e43565b508091505092915050565b60006020820190508181036000830152611f5b8184611e52565b905092915050565b600082825260208201905092915050565b6000611f7f82611d5e565b611f898185611f63565b9350611f99818560208601611d7a565b611fa281611bd9565b840191505092915050565b611fb681611dfd565b82525050565b611fc581611e1e565b82525050565b611fd481611e37565b82525050565b6000610160820190508181036000830152611ff5818e611f74565b9050612004602083018d611fad565b612011604083018c611fad565b61201e606083018b611fbc565b61202b608083018a611fbc565b61203860a0830189611fcb565b61204560c0830188611fcb565b61205260e0830187611fcb565b612060610100830186611fcb565b61206e610120830185611fbc565b61207c610140830184611fcb565b9c9b505050505050505050505050565b60006020820190506120a16000830184611fcb565b92915050565b6120b081611dfd565b81146120bb57600080fd5b50565b6000813590506120cd816120a7565b92915050565b6120dc81611e1e565b81146120e757600080fd5b50565b6000813590506120f9816120d3565b92915050565b6000806040838503121561211657612115611bc5565b5b6000612124858286016120be565b9250506020612135858286016120ea565b9150509250929050565b600060208201905081810360008301526121598184611f74565b905092915050565b600080600080600060a0868803121561217d5761217c611bc5565b5b600086013567ffffffffffffffff81111561219b5761219a611bca565b5b6121a788828901611ce7565b955050602086013567ffffffffffffffff8111156121c8576121c7611bca565b5b6121d488828901611ce7565b94505060406121e5888289016120be565b93505060606121f6888289016120ea565b9250506080612207888289016120ea565b9150509295509295909350565b600081905092915050565b600061222a82611d5e565b6122348185612214565b9350612244818560208601611d7a565b80840191505092915050565b600061225c828461221f565b915081905092915050565b7f436f6e747261637420646f6573206e6f74206578697374000000000000000000600082015250565b600061229d601783611f63565b91506122a882612267565b602082019050919050565b600060208201905081810360008301526122cc81612290565b9050919050565b7f4e487b7100000000000000000000000000000000000000000000000000000000600052602260045260246000fd5b6000600282049050600182168061231a57607f821691505b60208210810361232d5761232c6122d3565b5b50919050565b7f436f6e747261637420494420616c726561647920657869737473000000000000600082015250565b6000612369601a83611f63565b915061237482612333565b602082019050919050565b600060208201905081810360008301526123988161235c565b9050919050565b7f436f756e74657270617274792063616e6e6f742062652073616d65206173206960008201527f6e69746961746f72000000000000000000000000000000000000000000000000602082015250565b60006123fb602883611f63565b91506124068261239f565b604082019050919050565b6000602082019050818103600083015261242a816123ee565b9050919050565b60008190508160005260206000209050919050565b60006020601f8301049050919050565b600082821b905092915050565b6000600883026124937fffffffffffffffffffffffffffffffffffffffffffffffffffffffffffffffff82612456565b61249d8683612456565b95508019841693508086168417925050509392505050565b6000819050919050565b60006124da6124d56124d084611e1e565b6124b5565b611e1e565b9050919050565b6000819050919050565b6124f4836124bf565b612508612500826124e1565b848454612463565b825550505050565b600090565b61251d612510565b6125288184846124eb565b505050565b5b8181101561254c57612541600082612515565b60018101905061252e565b5050565b601f8211156125915761256281612431565b61256b84612446565b8101602085101561257a578190505b61258e61258685612446565b83018261252d565b50505b505050565b600082821c905092915050565b60006125b460001984600802612596565b1980831691505092915050565b60006125cd83836125a3565b9150826002028217905092915050565b6125e682611d5e565b67ffffffffffffffff8111156125ff576125fe611bea565b5b6126098254612302565b612614828285612550565b600060209050601f8311600181146126475760008415612635578287015190505b61263f85826125c1565b8655506126a7565b601f19841661265586612431565b60005b8281101561267d57848901518255600182019150602085019450602081019050612658565b8683101561269a5784890151612696601f8916826125a3565b8355505b6001600288020188555050505b505050505050565b7f4e6f74206120706172747920746f207468697320636f6e747261637400000000600082015250565b60006126e5601c83611f63565b91506126f0826126af565b602082019050919050565b60006020820190508181036000830152612714816126d8565b9050919050565b7f416c7265616479207369676e656420627920696e69746961746f720000000000600082015250565b6000612751601b83611f63565b915061275c8261271b565b602082019050919050565b6000602082019050818103600083015261278081612744565b9050919050565b7f416c7265616479207369676e656420627920636f756e74657270617274790000600082015250565b60006127bd601e83611f63565b91506127c882612787565b602082019050919050565b600060208201905081810360008301526127ec816127b0565b9050919050565b7f416c7265616479207061696420627920696e69746961746f7200000000000000600082015250565b6000612829601983611f63565b9150612834826127f3565b602082019050919050565b600060208201905081810360008301526128588161281c565b9050919050565b7f496e636f7272656374207061796d656e7420616d6f756e740000000000000000600082015250565b6000612895601883611f63565b91506128a08261285f565b602082019050919050565b600060208201905081810360008301526128c481612888565b9050919050565b7f416c7265616479207061696420627920636f756e746572706172747900000000600082015250565b6000612901601c83611f63565b915061290c826128cb565b602082019050919050565b60006020820190508181036000830152612930816128f4565b9050919050565b600060208201905061294c6000830184611fbc565b9291505056fea2646970667358221220f0c15d137b416678446629fed8065242f5383d093cfd64a358db8e2f8384c45f64736f6c63430008180033","opcodes":"PUSH1 0x80 PUSH1 0x40 MSTORE CALLVALUE DUP1 ISZERO PUSH2 0x10 JUMPI PUSH1 0x0 DUP1 REVERT JUMPDEST POP PUSH2 0x2988 DUP1 PUSH2 0x20 PUSH1 0x0 CODECOPY PUSH1 0x0 RETURN INVALID PUSH1 0x80 PUSH1 0x40 MSTORE PUSH1 0x4 CALLDATASIZE LT PUSH2 0x70 JUMPI PUSH1 0x0 CALLDATALOAD PUSH1 0xE0 SHR DUP1 PUSH4 0xB789003D GT PUSH2 0x4E JUMPI DUP1 PUSH4 0xB789003D EQ PUSH2 0x136 JUMPI DUP1 PUSH4 0xC3A538F1 EQ PUSH2 0x173 JUMPI DUP1 PUSH4 0xC63576E4 EQ PUSH2 0x19C JUMPI DUP1 PUSH4 0xF9E823E6 EQ PUSH2 0x1C5 JUMPI PUSH2 0x70 JUMP JUMPDEST DUP1 PUSH4 0x35817773 EQ PUSH2 0x75 JUMPI DUP1 PUSH4 0x8C5B8385 EQ PUSH2 0xB2 JUMPI DUP1 PUSH4 0xB0FC7F8C EQ PUSH2 0xF9 JUMPI JUMPDEST PUSH1 0x0 DUP1 REVERT JUMPDEST CALLVALUE DUP1 ISZERO PUSH2 0x81 JUMPI PUSH1 0x0 DUP1 REVERT JUMPDEST POP PUSH2 0x9C PUSH1 0x4 DUP1 CALLDATASIZE SUB DUP2 ADD SWAP1 PUSH2 0x97 SWAP2 SWAP1 PUSH2 0x1D15 JUMP JUMPDEST PUSH2 0x1E1 JUMP JUMPDEST PUSH1 0x40 MLOAD PUSH2 0xA9 SWAP2 SWAP1 PUSH2 0x1F41 JUMP JUMPDEST PUSH1 0x40 MLOAD DUP1 SWAP2 SUB SWAP1 RETURN JUMPDEST CALLVALUE DUP1 ISZERO PUSH2 0xBE JUMPI PUSH1 0x0 DUP1 REVERT JUMPDEST POP PUSH2 0xD9 PUSH1 0x4 DUP1 CALLDATASIZE SUB DUP2 ADD SWAP1 PUSH2 0xD4 SWAP2 SWAP1 PUSH2 0x1D15 JUMP JUMPDEST PUSH2 0x4F7 JUMP JUMPDEST PUSH1 0x40 MLOAD PUSH2 0xF0 SWAP12 SWAP11 SWAP10 SWAP9 SWAP8 SWAP7 SWAP6 SWAP5 SWAP4 SWAP3 SWAP2 SWAP1 PUSH2 0x1FDA JUMP JUMPDEST PUSH1 0x40 MLOAD DUP1 SWAP2 SUB SWAP1 RETURN JUMPDEST CALLVALUE DUP1 ISZERO PUSH2 0x105 JUMPI PUSH1 0x0 DUP1 REVERT JUMPDEST POP PUSH2 0x120 PUSH1 0x4 DUP1 CALLDATASIZE SUB DUP2 ADD SWAP1 PUSH2 0x11B SWAP2 SWAP1 PUSH2 0x1D15 JUMP JUMPDEST PUSH2 0x670 JUMP JUMPDEST PUSH1 0x40 MLOAD PUSH2 0x12D SWAP2 SWAP1 PUSH2 0x208C JUMP JUMPDEST PUSH1 0x40 MLOAD DUP1 SWAP2 SUB SWAP1 RETURN JUMPDEST CALLVALUE DUP1 ISZERO PUSH2 0x142 JUMPI PUSH1 0x0 DUP1 REVERT JUMPDEST POP PUSH2 0x15D PUSH1 0x4 DUP1 CALLDATASIZE SUB DUP2 ADD SWAP1 PUSH2 0x158 SWAP2 SWAP1 PUSH2 0x20FF JUMP JUMPDEST PUSH2 0x7E9 JUMP JUMPDEST PUSH1 0x40 MLOAD PUSH2 0x16A SWAP2 SWAP1 PUSH2 0x213F JUMP JUMPDEST PUSH1 0x40 MLOAD DUP1 SWAP2 SUB SWAP1 RETURN JUMPDEST CALLVALUE DUP1 ISZERO PUSH2 0x17F JUMPI PUSH1 0x0 DUP1 REVERT JUMPDEST POP PUSH2 0x19A PUSH1 0x4 DUP1 CALLDATASIZE SUB DUP2 ADD SWAP1 PUSH2 0x195 SWAP2 SWAP1 PUSH2 0x2161 JUMP JUMPDEST PUSH2 0x8A2 JUMP JUMPDEST STOP JUMPDEST CALLVALUE DUP1 ISZERO PUSH2 0x1A8 JUMPI PUSH1 0x0 DUP1 REVERT JUMPDEST POP PUSH2 0x1C3 PUSH1 0x4 DUP1 CALLDATASIZE SUB DUP2 ADD SWAP1 PUSH2 0x1BE SWAP2 SWAP1 PUSH2 0x1D15 JUMP JUMPDEST PUSH2 0xE27 JUMP JUMPDEST STOP JUMPDEST PUSH2 0x1DF PUSH1 0x4 DUP1 CALLDATASIZE SUB DUP2 ADD SWAP1 PUSH2 0x1DA SWAP2 SWAP1 PUSH2 0x1D15 JUMP JUMPDEST PUSH2 0x138E JUMP JUMPDEST STOP JUMPDEST PUSH2 0x1E9 PUSH2 0x1B2B JUMP JUMPDEST PUSH2 0x1FD PUSH8 0x4819F994E333AFD3 PUSH1 0xC0 SHL PUSH2 0x1B1D JUMP JUMPDEST PUSH2 0x211 PUSH8 0x66538E0128DD228 PUSH1 0xC0 SHL PUSH2 0x1B1D JUMP JUMPDEST PUSH2 0x225 PUSH8 0x67832C9080339746 PUSH1 0xC0 SHL PUSH2 0x1B1D JUMP JUMPDEST PUSH2 0x239 PUSH8 0x10306B9C6284E38B PUSH1 0xC0 SHL PUSH2 0x1B1D JUMP JUMPDEST PUSH1 0x0 DUP3 PUSH1 0x40 MLOAD PUSH2 0x249 SWAP2 SWAP1 PUSH2 0x2250 JUMP JUMPDEST SWAP1 DUP2 MSTORE PUSH1 0x20 ADD PUSH1 0x40 MLOAD DUP1 SWAP2 SUB SWAP1 KECCAK256 PUSH1 0x7 ADD PUSH1 0x0 SWAP1 SLOAD SWAP1 PUSH2 0x100 EXP SWAP1 DIV PUSH1 0xFF AND PUSH2 0x2A7 JUMPI PUSH1 0x40 MLOAD PUSH32 0x8C379A000000000000000000000000000000000000000000000000000000000 DUP2 MSTORE PUSH1 0x4 ADD PUSH2 0x29E SWAP1 PUSH2 0x22B3 JUMP JUMPDEST PUSH1 0x40 MLOAD DUP1 SWAP2 SUB SWAP1 REVERT JUMPDEST PUSH2 0x2BB PUSH8 0x19E1FA2ECFFD9576 PUSH1 0xC0 SHL PUSH2 0x1B1D JUMP JUMPDEST PUSH2 0x2CF PUSH8 0x12475F14959E62C0 PUSH1 0xC0 SHL PUSH2 0x1B1D JUMP JUMPDEST PUSH2 0x2E3 PUSH8 0x9F23083DCFE25457 PUSH1 0xC0 SHL PUSH2 0x1B1D JUMP JUMPDEST PUSH1 0x0 DUP3 PUSH1 0x40 MLOAD PUSH2 0x2F3 SWAP2 SWAP1 PUSH2 0x2250 JUMP JUMPDEST SWAP1 DUP2 MSTORE PUSH1 0x20 ADD PUSH1 0x40 MLOAD DUP1 SWAP2 SUB SWAP1 KECCAK256 PUSH1 0x40 MLOAD DUP1 PUSH2 0x160 ADD PUSH1 0x40 MSTORE SWAP1 DUP2 PUSH1 0x0 DUP3 ADD DUP1 SLOAD PUSH2 0x31D SWAP1 PUSH2 0x2302 JUMP JUMPDEST DUP1 PUSH1 0x1F ADD PUSH1 0x20 DUP1 SWAP2 DIV MUL PUSH1 0x20 ADD PUSH1 0x40 MLOAD SWAP1 DUP2 ADD PUSH1 0x40 MSTORE DUP1 SWAP3 SWAP2 SWAP1 DUP2 DUP2 MSTORE PUSH1 0x20 ADD DUP3 DUP1 SLOAD PUSH2 0x349 SWAP1 PUSH2 0x2302 JUMP JUMPDEST DUP1 ISZERO PUSH2 0x396 JUMPI DUP1 PUSH1 0x1F LT PUSH2 0x36B JUMPI PUSH2 0x100 DUP1 DUP4 SLOAD DIV MUL DUP4 MSTORE SWAP2 PUSH1 0x20 ADD SWAP2 PUSH2 0x396 JUMP JUMPDEST DUP3 ADD SWAP2 SWAP1 PUSH1 0x0 MSTORE PUSH1 0x20 PUSH1 0x0 KECCAK256 SWAP1 JUMPDEST DUP2 SLOAD DUP2 MSTORE SWAP1 PUSH1 0x1 ADD SWAP1 PUSH1 0x20 ADD DUP1 DUP4 GT PUSH2 0x379 JUMPI DUP3 SWAP1 SUB PUSH1 0x1F AND DUP3 ADD SWAP2 JUMPDEST POP POP POP POP POP DUP2 MSTORE PUSH1 0x20 ADD PUSH1 0x1 DUP3 ADD PUSH1 0x0 SWAP1 SLOAD SWAP1 PUSH2 0x100 EXP SWAP1 DIV PUSH20 0xFFFFFFFFFFFFFFFFFFFFFFFFFFFFFFFFFFFFFFFF AND PUSH20 0xFFFFFFFFFFFFFFFFFFFFFFFFFFFFFFFFFFFFFFFF AND PUSH20 0xFFFFFFFFFFFFFFFFFFFFFFFFFFFFFFFFFFFFFFFF AND DUP2 MSTORE PUSH1 0x20 ADD PUSH1 0x2 DUP3 ADD PUSH1 0x0 SWAP1 SLOAD SWAP1 PUSH2 0x100 EXP SWAP1 DIV PUSH20 0xFFFFFFFFFFFFFFFFFFFFFFFFFFFFFFFFFFFFFFFF AND PUSH20 0xFFFFFFFFFFFFFFFFFFFFFFFFFFFFFFFFFFFFFFFF AND PUSH20 0xFFFFFFFFFFFFFFFFFFFFFFFFFFFFFFFFFFFFFFFF AND DUP2 MSTORE PUSH1 0x20 ADD PUSH1 0x3 DUP3 ADD SLOAD DUP2 MSTORE PUSH1 0x20 ADD PUSH1 0x4 DUP3 ADD SLOAD DUP2 MSTORE PUSH1 0x20 ADD PUSH1 0x5 DUP3 ADD PUSH1 0x0 SWAP1 SLOAD SWAP1 PUSH2 0x100 EXP SWAP1 DIV PUSH1 0xFF AND ISZERO ISZERO ISZERO ISZERO DUP2 MSTORE PUSH1 0x20 ADD PUSH1 0x5 DUP3 ADD PUSH1 0x1 SWAP1 SLOAD SWAP1 PUSH2 0x100 EXP SWAP1 DIV PUSH1 0xFF AND ISZERO ISZERO ISZERO ISZERO DUP2 MSTORE PUSH1 0x20 ADD PUSH1 0x5 DUP3 ADD PUSH1 0x2 SWAP1 SLOAD SWAP1 PUSH2 0x100 EXP SWAP1 DIV PUSH1 0xFF AND ISZERO ISZERO ISZERO ISZERO DUP2 MSTORE PUSH1 0x20 ADD PUSH1 0x5 DUP3 ADD PUSH1 0x3 SWAP1 SLOAD SWAP1 PUSH2 0x100 EXP SWAP1 DIV PUSH1 0xFF AND ISZERO ISZERO ISZERO ISZERO DUP2 MSTORE PUSH1 0x20 ADD PUSH1 0x6 DUP3 ADD SLOAD DUP2 MSTORE PUSH1 0x20 ADD PUSH1 0x7 DUP3 ADD PUSH1 0x0 SWAP1 SLOAD SWAP1 PUSH2 0x100 EXP SWAP1 DIV PUSH1 0xFF AND ISZERO ISZERO ISZERO ISZERO DUP2 MSTORE POP POP SWAP1 POP SWAP2 SWAP1 POP JUMP JUMPDEST PUSH1 0x0 DUP2 DUP1 MLOAD PUSH1 0x20 DUP2 ADD DUP3 ADD DUP1 MLOAD DUP5 DUP3 MSTORE PUSH1 0x20 DUP4 ADD PUSH1 0x20 DUP6 ADD KECCAK256 DUP2 DUP4 MSTORE DUP1 SWAP6 POP POP POP POP POP POP PUSH1 0x0 SWAP2 POP SWAP1 POP DUP1 PUSH1 0x0 ADD DUP1 SLOAD PUSH2 0x530 SWAP1 PUSH2 0x2302 JUMP JUMPDEST DUP1 PUSH1 0x1F ADD PUSH1 0x20 DUP1 SWAP2 DIV MUL PUSH1 0x20 ADD PUSH1 0x40 MLOAD SWAP1 DUP2 ADD PUSH1 0x40 MSTORE DUP1 SWAP3 SWAP2 SWAP1 DUP2 DUP2 MSTORE PUSH1 0x20 ADD DUP3 DUP1 SLOAD PUSH2 0x55C SWAP1 PUSH2 0x2302 JUMP JUMPDEST DUP1 ISZERO PUSH2 0x5A9 JUMPI DUP1 PUSH1 0x1F LT PUSH2 0x57E JUMPI PUSH2 0x100 DUP1 DUP4 SLOAD DIV MUL DUP4 MSTORE SWAP2 PUSH1 0x20 ADD SWAP2 PUSH2 0x5A9 JUMP JUMPDEST DUP3 ADD SWAP2 SWAP1 PUSH1 0x0 MSTORE PUSH1 0x20 PUSH1 0x0 KECCAK256 SWAP1 JUMPDEST DUP2 SLOAD DUP2 MSTORE SWAP1 PUSH1 0x1 ADD SWAP1 PUSH1 0x20 ADD DUP1 DUP4 GT PUSH2 0x58C JUMPI DUP3 SWAP1 SUB PUSH1 0x1F AND DUP3 ADD SWAP2 JUMPDEST POP POP POP POP POP SWAP1 DUP1 PUSH1 0x1 ADD PUSH1 0x0 SWAP1 SLOAD SWAP1 PUSH2 0x100 EXP SWAP1 DIV PUSH20 0xFFFFFFFFFFFFFFFFFFFFFFFFFFFFFFFFFFFFFFFF AND SWAP1 DUP1 PUSH1 0x2 ADD PUSH1 0x0 SWAP1 SLOAD SWAP1 PUSH2 0x100 EXP SWAP1 DIV PUSH20 0xFFFFFFFFFFFFFFFFFFFFFFFFFFFFFFFFFFFFFFFF AND SWAP1 DUP1 PUSH1 0x3 ADD SLOAD SWAP1 DUP1 PUSH1 0x4 ADD SLOAD SWAP1 DUP1 PUSH1 0x5 ADD PUSH1 0x0 SWAP1 SLOAD SWAP1 PUSH2 0x100 EXP SWAP1 DIV PUSH1 0xFF AND SWAP1 DUP1 PUSH1 0x5 ADD PUSH1 0x1 SWAP1 SLOAD SWAP1 PUSH2 0x100 EXP SWAP1 DIV PUSH1 0xFF AND SWAP1 DUP1 PUSH1 0x5 ADD PUSH1 0x2 SWAP1 SLOAD SWAP1 PUSH2 0x100 EXP SWAP1 DIV PUSH1 0xFF AND SWAP1 DUP1 PUSH1 0x5 ADD PUSH1 0x3 SWAP1 SLOAD SWAP1 PUSH2 0x100 EXP SWAP1 DIV PUSH1 0xFF AND SWAP1 DUP1 PUSH1 0x6 ADD SLOAD SWAP1 DUP1 PUSH1 0x7 ADD PUSH1 0x0 SWAP1 SLOAD SWAP1 PUSH2 0x100 EXP SWAP1 DIV PUSH1 0xFF AND SWAP1 POP DUP12 JUMP JUMPDEST PUSH1 0x0 PUSH2 0x686 PUSH8 0x435C2FC285EFBC2B PUSH1 0xC0 SHL PUSH2 0x1B1D JUMP JUMPDEST PUSH2 0x69A PUSH8 0xF06408EB86FCC4F9 PUSH1 0xC0 SHL PUSH2 0x1B1D JUMP JUMPDEST PUSH2 0x6AE PUSH8 0x5C4EFD158726D646 PUSH1 0xC0 SHL PUSH2 0x1B1D JUMP JUMPDEST PUSH2 0x6C2 PUSH8 0x306CC5DB03CF38C8 PUSH1 0xC0 SHL PUSH2 0x1B1D JUMP JUMPDEST PUSH1 0x0 DUP3 PUSH1 0x40 MLOAD PUSH2 0x6D2 SWAP2 SWAP1 PUSH2 0x2250 JUMP JUMPDEST SWAP1 DUP2 MSTORE PUSH1 0x20 ADD PUSH1 0x40 MLOAD DUP1 SWAP2 SUB SWAP1 KECCAK256 PUSH1 0x7 ADD PUSH1 0x0 SWAP1 SLOAD SWAP1 PUSH2 0x100 EXP SWAP1 DIV PUSH1 0xFF AND PUSH2 0x730 JUMPI PUSH1 0x40 MLOAD PUSH32 0x8C379A000000000000000000000000000000000000000000000000000000000 DUP2 MSTORE PUSH1 0x4 ADD PUSH2 0x727 SWAP1 PUSH2 0x22B3 JUMP JUMPDEST PUSH1 0x40 MLOAD DUP1 SWAP2 SUB SWAP1 REVERT JUMPDEST PUSH2 0x744 PUSH8 0xAA5F8F09631FDDFF PUSH1 0xC0 SHL PUSH2 0x1B1D JUMP JUMPDEST PUSH2 0x758 PUSH8 0xC48A0E3FDAAF1F6D PUSH1 0xC0 SHL PUSH2 0x1B1D JUMP JUMPDEST PUSH2 0x76C PUSH8 0xEEA418B6088BEC9A PUSH1 0xC0 SHL PUSH2 0x1B1D JUMP JUMPDEST PUSH1 0x0 DUP1 DUP4 PUSH1 0x40 MLOAD PUSH2 0x77D SWAP2 SWAP1 PUSH2 0x2250 JUMP JUMPDEST SWAP1 DUP2 MSTORE PUSH1 0x20 ADD PUSH1 0x40 MLOAD DUP1 SWAP2 SUB SWAP1 KECCAK256 SWAP1 POP PUSH2 0x7A1 PUSH8 0x1A3E06CB7A3247A9 PUSH1 0xC0 SHL PUSH2 0x1B1D JUMP JUMPDEST PUSH2 0x7B5 PUSH8 0x973DB224F4B905DD PUSH1 0xC0 SHL PUSH2 0x1B1D JUMP JUMPDEST DUP1 PUSH1 0x5 ADD PUSH1 0x2 SWAP1 SLOAD SWAP1 PUSH2 0x100 EXP SWAP1 DIV PUSH1 0xFF AND DUP1 ISZERO PUSH2 0x7E1 JUMPI POP DUP1 PUSH1 0x5 ADD PUSH1 0x3 SWAP1 SLOAD SWAP1 PUSH2 0x100 EXP SWAP1 DIV PUSH1 0xFF AND JUMPDEST SWAP2 POP POP SWAP2 SWAP1 POP JUMP JUMPDEST PUSH1 0x1 PUSH1 0x20 MSTORE DUP2 PUSH1 0x0 MSTORE PUSH1 0x40 PUSH1 0x0 KECCAK256 DUP2 DUP2 SLOAD DUP2 LT PUSH2 0x805 JUMPI PUSH1 0x0 DUP1 REVERT JUMPDEST SWAP1 PUSH1 0x0 MSTORE PUSH1 0x20 PUSH1 0x0 KECCAK256 ADD PUSH1 0x0 SWAP2 POP SWAP2 POP POP DUP1 SLOAD PUSH2 0x821 SWAP1 PUSH2 0x2302 JUMP JUMPDEST DUP1 PUSH1 0x1F ADD PUSH1 0x20 DUP1 SWAP2 DIV MUL PUSH1 0x20 ADD PUSH1 0x40 MLOAD SWAP1 DUP2 ADD PUSH1 0x40 MSTORE DUP1 SWAP3 SWAP2 SWAP1 DUP2 DUP2 MSTORE PUSH1 0x20 ADD DUP3 DUP1 SLOAD PUSH2 0x84D SWAP1 PUSH2 0x2302 JUMP JUMPDEST DUP1 ISZERO PUSH2 0x89A JUMPI DUP1 PUSH1 0x1F LT PUSH2 0x86F JUMPI PUSH2 0x100 DUP1 DUP4 SLOAD DIV MUL DUP4 MSTORE SWAP2 PUSH1 0x20 ADD SWAP2 PUSH2 0x89A JUMP JUMPDEST DUP3 ADD SWAP2 SWAP1 PUSH1 0x0 MSTORE PUSH1 0x20 PUSH1 0x0 KECCAK256 SWAP1 JUMPDEST DUP2 SLOAD DUP2 MSTORE SWAP1 PUSH1 0x1 ADD SWAP1 PUSH1 0x20 ADD DUP1 DUP4 GT PUSH2 0x87D JUMPI DUP3 SWAP1 SUB PUSH1 0x1F AND DUP3 ADD SWAP2 JUMPDEST POP POP POP POP POP DUP2 JUMP JUMPDEST PUSH2 0x8B6 PUSH8 0x7BDF5655FE14195B PUSH1 0xC0 SHL PUSH2 0x1B1D JUMP JUMPDEST PUSH2 0x8CA PUSH8 0xD83A201FAA93BAB3 PUSH1 0xC0 SHL PUSH2 0x1B1D JUMP JUMPDEST PUSH2 0x8DE PUSH8 0x615911D32851CADD PUSH1 0xC0 SHL PUSH2 0x1B1D JUMP JUMPDEST PUSH2 0x8F2 PUSH8 0x4113CFBA152F0F3B PUSH1 0xC0 SHL PUSH2 0x1B1D JUMP JUMPDEST PUSH1 0x0 DUP6 PUSH1 0x40 MLOAD PUSH2 0x902 SWAP2 SWAP1 PUSH2 0x2250 JUMP JUMPDEST SWAP1 DUP2 MSTORE PUSH1 0x20 ADD PUSH1 0x40 MLOAD DUP1 SWAP2 SUB SWAP1 KECCAK256 PUSH1 0x7 ADD PUSH1 0x0 SWAP1 SLOAD SWAP1 PUSH2 0x100 EXP SWAP1 DIV PUSH1 0xFF AND ISZERO PUSH2 0x961 JUMPI PUSH1 0x40 MLOAD PUSH32 0x8C379A000000000000000000000000000000000000000000000000000000000 DUP2 MSTORE PUSH1 0x4 ADD PUSH2 0x958 SWAP1 PUSH2 0x237F JUMP JUMPDEST PUSH1 0x40 MLOAD DUP1 SWAP2 SUB SWAP1 REVERT JUMPDEST PUSH2 0x975 PUSH8 0x4956DC968F4F2FC7 PUSH1 0xC0 SHL PUSH2 0x1B1D JUMP JUMPDEST PUSH2 0x989 PUSH8 0x40C6CBA63F3C4A5 PUSH1 0xC0 SHL PUSH2 0x1B1D JUMP JUMPDEST PUSH2 0x99D PUSH8 0x2CD9D3B73CB3FFA7 PUSH1 0xC0 SHL PUSH2 0x1B1D JUMP JUMPDEST PUSH2 0x9B1 PUSH8 0x7B5FB60619860FE6 PUSH1 0xC0 SHL PUSH2 0x1B1D JUMP JUMPDEST DUP3 PUSH20 0xFFFFFFFFFFFFFFFFFFFFFFFFFFFFFFFFFFFFFFFF AND CALLER PUSH20 0xFFFFFFFFFFFFFFFFFFFFFFFFFFFFFFFFFFFFFFFF AND SUB PUSH2 0xA1F JUMPI PUSH1 0x40 MLOAD PUSH32 0x8C379A000000000000000000000000000000000000000000000000000000000 DUP2 MSTORE PUSH1 0x4 ADD PUSH2 0xA16 SWAP1 PUSH2 0x2411 JUMP JUMPDEST PUSH1 0x40 MLOAD DUP1 SWAP2 SUB SWAP1 REVERT JUMPDEST PUSH2 0xA33 PUSH8 0xC530C6FC5D4C4095 PUSH1 0xC0 SHL PUSH2 0x1B1D JUMP JUMPDEST PUSH2 0xA47 PUSH8 0x67F072F73CB06F1B PUSH1 0xC0 SHL PUSH2 0x1B1D JUMP JUMPDEST PUSH1 0x40 MLOAD DUP1 PUSH2 0x160 ADD PUSH1 0x40 MSTORE DUP1 DUP6 DUP2 MSTORE PUSH1 0x20 ADD CALLER PUSH20 0xFFFFFFFFFFFFFFFFFFFFFFFFFFFFFFFFFFFFFFFF AND DUP2 MSTORE PUSH1 0x20 ADD DUP5 PUSH20 0xFFFFFFFFFFFFFFFFFFFFFFFFFFFFFFFFFFFFFFFF AND DUP2 MSTORE PUSH1 0x20 ADD DUP4 DUP2 MSTORE PUSH1 0x20 ADD DUP3 DUP2 MSTORE PUSH1 0x20 ADD PUSH1 0x0 ISZERO ISZERO DUP2 MSTORE PUSH1 0x20 ADD PUSH1 0x0 ISZERO ISZERO DUP2 MSTORE PUSH1 0x20 ADD PUSH1 0x0 ISZERO ISZERO DUP2 MSTORE PUSH1 0x20 ADD PUSH1 0x0 ISZERO ISZERO DUP2 MSTORE PUSH1 0x20 ADD TIMESTAMP DUP2 MSTORE PUSH1 0x20 ADD PUSH1 0x1 ISZERO ISZERO DUP2 MSTORE POP PUSH1 0x0 DUP7 PUSH1 0x40 MLOAD PUSH2 0xADE SWAP2 SWAP1 PUSH2 0x2250 JUMP JUMPDEST SWAP1 DUP2 MSTORE PUSH1 0x20 ADD PUSH1 0x40 MLOAD DUP1 SWAP2 SUB SWAP1 KECCAK256 PUSH1 0x0 DUP3 ADD MLOAD DUP2 PUSH1 0x0 ADD SWAP1 DUP2 PUSH2 0xB01 SWAP2 SWAP1 PUSH2 0x25DD JUMP JUMPDEST POP PUSH1 0x20 DUP3 ADD MLOAD DUP2 PUSH1 0x1 ADD PUSH1 0x0 PUSH2 0x100 EXP DUP2 SLOAD DUP2 PUSH20 0xFFFFFFFFFFFFFFFFFFFFFFFFFFFFFFFFFFFFFFFF MUL NOT AND SWAP1 DUP4 PUSH20 0xFFFFFFFFFFFFFFFFFFFFFFFFFFFFFFFFFFFFFFFF AND MUL OR SWAP1 SSTORE POP PUSH1 0x40 DUP3 ADD MLOAD DUP2 PUSH1 0x2 ADD PUSH1 0x0 PUSH2 0x100 EXP DUP2 SLOAD DUP2 PUSH20 0xFFFFFFFFFFFFFFFFFFFFFFFFFFFFFFFFFFFFFFFF MUL NOT AND SWAP1 DUP4 PUSH20 0xFFFFFFFFFFFFFFFFFFFFFFFFFFFFFFFFFFFFFFFF AND MUL OR SWAP1 SSTORE POP PUSH1 0x60 DUP3 ADD MLOAD DUP2 PUSH1 0x3 ADD SSTORE PUSH1 0x80 DUP3 ADD MLOAD DUP2 PUSH1 0x4 ADD SSTORE PUSH1 0xA0 DUP3 ADD MLOAD DUP2 PUSH1 0x5 ADD PUSH1 0x0 PUSH2 0x100 EXP DUP2 SLOAD DUP2 PUSH1 0xFF MUL NOT AND SWAP1 DUP4 ISZERO ISZERO MUL OR SWAP1 SSTORE POP PUSH1 0xC0 DUP3 ADD MLOAD DUP2 PUSH1 0x5 ADD PUSH1 0x1 PUSH2 0x100 EXP DUP2 SLOAD DUP2 PUSH1 0xFF MUL NOT AND SWAP1 DUP4 ISZERO ISZERO MUL OR SWAP1 SSTORE POP PUSH1 0xE0 DUP3 ADD MLOAD DUP2 PUSH1 0x5 ADD PUSH1 0x2 PUSH2 0x100 EXP DUP2 SLOAD DUP2 PUSH1 0xFF MUL NOT AND SWAP1 DUP4 ISZERO ISZERO MUL OR SWAP1 SSTORE POP PUSH2 0x100 DUP3 ADD MLOAD DUP2 PUSH1 0x5 ADD PUSH1 0x3 PUSH2 0x100 EXP DUP2 SLOAD DUP2 PUSH1 0xFF MUL NOT AND SWAP1 DUP4 ISZERO ISZERO MUL OR SWAP1 SSTORE POP PUSH2 0x120 DUP3 ADD MLOAD DUP2 PUSH1 0x6 ADD SSTORE PUSH2 0x140 DUP3 ADD MLOAD DUP2 PUSH1 0x7 ADD PUSH1 0x0 PUSH2 0x100 EXP DUP2 SLOAD DUP2 PUSH1 0xFF MUL NOT AND SWAP1 DUP4 ISZERO ISZERO MUL OR SWAP1 SSTORE POP SWAP1 POP POP PUSH2 0xC68 PUSH8 0xA0C315995A59518D PUSH1 0xC0 SHL PUSH2 0x1B1D JUMP JUMPDEST PUSH2 0xC7C PUSH8 0x440DBD76730233A6 PUSH1 0xC0 SHL PUSH2 0x1B1D JUMP JUMPDEST PUSH1 0x1 PUSH1 0x0 CALLER PUSH20 0xFFFFFFFFFFFFFFFFFFFFFFFFFFFFFFFFFFFFFFFF AND PUSH20 0xFFFFFFFFFFFFFFFFFFFFFFFFFFFFFFFFFFFFFFFF AND DUP2 MSTORE PUSH1 0x20 ADD SWAP1 DUP2 MSTORE PUSH1 0x20 ADD PUSH1 0x0 KECCAK256 DUP6 SWAP1 DUP1 PUSH1 0x1 DUP2 SLOAD ADD DUP1 DUP3 SSTORE DUP1 SWAP2 POP POP PUSH1 0x1 SWAP1 SUB SWAP1 PUSH1 0x0 MSTORE PUSH1 0x20 PUSH1 0x0 KECCAK256 ADD PUSH1 0x0 SWAP1 SWAP2 SWAP1 SWAP2 SWAP1 SWAP2 POP SWAP1 DUP2 PUSH2 0xCED SWAP2 SWAP1 PUSH2 0x25DD JUMP JUMPDEST POP PUSH2 0xD02 PUSH8 0x3255E1817C473EDE PUSH1 0xC0 SHL PUSH2 0x1B1D JUMP JUMPDEST PUSH2 0xD16 PUSH8 0xA919FD40C74ABD0B PUSH1 0xC0 SHL PUSH2 0x1B1D JUMP JUMPDEST PUSH1 0x1 PUSH1 0x0 DUP5 PUSH20 0xFFFFFFFFFFFFFFFFFFFFFFFFFFFFFFFFFFFFFFFF AND PUSH20 0xFFFFFFFFFFFFFFFFFFFFFFFFFFFFFFFFFFFFFFFF AND DUP2 MSTORE PUSH1 0x20 ADD SWAP1 DUP2 MSTORE PUSH1 0x20 ADD PUSH1 0x0 KECCAK256 DUP6 SWAP1 DUP1 PUSH1 0x1 DUP2 SLOAD ADD DUP1 DUP3 SSTORE DUP1 SWAP2 POP POP PUSH1 0x1 SWAP1 SUB SWAP1 PUSH1 0x0 MSTORE PUSH1 0x20 PUSH1 0x0 KECCAK256 ADD PUSH1 0x0 SWAP1 SWAP2 SWAP1 SWAP2 SWAP1 SWAP2 POP SWAP1 DUP2 PUSH2 0xD87 SWAP2 SWAP1 PUSH2 0x25DD JUMP JUMPDEST POP PUSH2 0xD9C PUSH8 0x63B40F06204EEAA7 PUSH1 0xC0 SHL PUSH2 0x1B1D JUMP JUMPDEST PUSH2 0xDB0 PUSH8 0x63D808ED97747429 PUSH1 0xC0 SHL PUSH2 0x1B1D JUMP JUMPDEST DUP3 PUSH20 0xFFFFFFFFFFFFFFFFFFFFFFFFFFFFFFFFFFFFFFFF AND CALLER PUSH20 0xFFFFFFFFFFFFFFFFFFFFFFFFFFFFFFFFFFFFFFFF AND DUP7 PUSH1 0x40 MLOAD PUSH2 0xDEC SWAP2 SWAP1 PUSH2 0x2250 JUMP JUMPDEST PUSH1 0x40 MLOAD DUP1 SWAP2 SUB SWAP1 KECCAK256 PUSH32 0x43F93AE33B60D644B7E1A7D3938679BDC5CC6F83A8E32491DAA3F66493D8442B PUSH1 0x40 MLOAD PUSH1 0x40 MLOAD DUP1 SWAP2 SUB SWAP1 LOG4 POP POP POP POP POP JUMP JUMPDEST PUSH2 0xE3B PUSH8 0x74F6D261B4159AEF PUSH1 0xC0 SHL PUSH2 0x1B1D JUMP JUMPDEST PUSH2 0xE4F PUSH8 0xE7AC19D682600512 PUSH1 0xC0 SHL PUSH2 0x1B1D JUMP JUMPDEST PUSH2 0xE63 PUSH8 0x5C46EBE78EF52945 PUSH1 0xC0 SHL PUSH2 0x1B1D JUMP JUMPDEST PUSH2 0xE77 PUSH8 0x22EA704DF5C50961 PUSH1 0xC0 SHL PUSH2 0x1B1D JUMP JUMPDEST PUSH1 0x0 DUP2 PUSH1 0x40 MLOAD PUSH2 0xE87 SWAP2 SWAP1 PUSH2 0x2250 JUMP JUMPDEST SWAP1 DUP2 MSTORE PUSH1 0x20 ADD PUSH1 0x40 MLOAD DUP1 SWAP2 SUB SWAP1 KECCAK256 PUSH1 0x7 ADD PUSH1 0x0 SWAP1 SLOAD SWAP1 PUSH2 0x100 EXP SWAP1 DIV PUSH1 0xFF AND PUSH2 0xEE5 JUMPI PUSH1 0x40 MLOAD PUSH32 0x8C379A000000000000000000000000000000000000000000000000000000000 DUP2 MSTORE PUSH1 0x4 ADD PUSH2 0xEDC SWAP1 PUSH2 0x22B3 JUMP JUMPDEST PUSH1 0x40 MLOAD DUP1 SWAP2 SUB SWAP1 REVERT JUMPDEST PUSH2 0xEF9 PUSH8 0x23AD830AEEE2C21D PUSH1 0xC0 SHL PUSH2 0x1B1D JUMP JUMPDEST PUSH2 0xF0D PUSH8 0x6EEA5457FC6107CC PUSH1 0xC0 SHL PUSH2 0x1B1D JUMP JUMPDEST PUSH2 0xF21 PUSH8 0x9B10E1339802102C PUSH1 0xC0 SHL PUSH2 0x1B1D JUMP JUMPDEST PUSH1 0x0 DUP1 DUP3 PUSH1 0x40 MLOAD PUSH2 0xF32 SWAP2 SWAP1 PUSH2 0x2250 JUMP JUMPDEST SWAP1 DUP2 MSTORE PUSH1 0x20 ADD PUSH1 0x40 MLOAD DUP1 SWAP2 SUB SWAP1 KECCAK256 SWAP1 POP PUSH2 0xF56 PUSH8 0x4CB2672CE20EA7A1 PUSH1 0xC0 SHL PUSH2 0x1B1D JUMP JUMPDEST PUSH2 0xF6A PUSH8 0xEEE22AEB7A32F9D7 PUSH1 0xC0 SHL PUSH2 0x1B1D JUMP JUMPDEST PUSH2 0xF7E PUSH8 0xFBF953819F0C0D9C PUSH1 0xC0 SHL PUSH2 0x1B1D JUMP JUMPDEST DUP1 PUSH1 0x1 ADD PUSH1 0x0 SWAP1 SLOAD SWAP1 PUSH2 0x100 EXP SWAP1 DIV PUSH20 0xFFFFFFFFFFFFFFFFFFFFFFFFFFFFFFFFFFFFFFFF AND PUSH20 0xFFFFFFFFFFFFFFFFFFFFFFFFFFFFFFFFFFFFFFFF AND CALLER PUSH20 0xFFFFFFFFFFFFFFFFFFFFFFFFFFFFFFFFFFFFFFFF AND EQ DUP1 ISZERO PUSH2 0xFED JUMPI POP PUSH2 0xFEC PUSH8 0xE47E91CAE11B6BA2 PUSH1 0xC0 SHL PUSH2 0x1B20 JUMP JUMPDEST JUMPDEST DUP1 PUSH2 0x1063 JUMPI POP DUP1 PUSH1 0x2 ADD PUSH1 0x0 SWAP1 SLOAD SWAP1 PUSH2 0x100 EXP SWAP1 DIV PUSH20 0xFFFFFFFFFFFFFFFFFFFFFFFFFFFFFFFFFFFFFFFF AND PUSH20 0xFFFFFFFFFFFFFFFFFFFFFFFFFFFFFFFFFFFFFFFF AND CALLER PUSH20 0xFFFFFFFFFFFFFFFFFFFFFFFFFFFFFFFFFFFFFFFF AND EQ DUP1 ISZERO PUSH2 0x1062 JUMPI POP PUSH2 0x1061 PUSH8 0x19CADF141AF6CF9C PUSH1 0xC0 SHL PUSH2 0x1B20 JUMP JUMPDEST JUMPDEST JUMPDEST PUSH2 0x10A2 JUMPI PUSH1 0x40 MLOAD PUSH32 0x8C379A000000000000000000000000000000000000000000000000000000000 DUP2 MSTORE PUSH1 0x4 ADD PUSH2 0x1099 SWAP1 PUSH2 0x26FB JUMP JUMPDEST PUSH1 0x40 MLOAD DUP1 SWAP2 SUB SWAP1 REVERT JUMPDEST PUSH2 0x10B6 PUSH8 0x446E92B8E5623EEB PUSH1 0xC0 SHL PUSH2 0x1B1D JUMP JUMPDEST PUSH2 0x10CA PUSH8 0x106515EC6E80B8AC PUSH1 0xC0 SHL PUSH2 0x1B1D JUMP JUMPDEST PUSH2 0x10DE PUSH8 0x40719DFCD0894792 PUSH1 0xC0 SHL PUSH2 0x1B1D JUMP JUMPDEST DUP1 PUSH1 0x1 ADD PUSH1 0x0 SWAP1 SLOAD SWAP1 PUSH2 0x100 EXP SWAP1 DIV PUSH20 0xFFFFFFFFFFFFFFFFFFFFFFFFFFFFFFFFFFFFFFFF AND PUSH20 0xFFFFFFFFFFFFFFFFFFFFFFFFFFFFFFFFFFFFFFFF AND CALLER PUSH20 0xFFFFFFFFFFFFFFFFFFFFFFFFFFFFFFFFFFFFFFFF AND SUB PUSH2 0x1221 JUMPI PUSH2 0x1149 PUSH8 0x8410F483FCFA32FC PUSH1 0xC0 SHL PUSH2 0x1B1D JUMP JUMPDEST PUSH2 0x115D PUSH8 0x9ACCE5F8F20D0CFD PUSH1 0xC0 SHL PUSH2 0x1B1D JUMP JUMPDEST PUSH2 0x1171 PUSH8 0x8AD595F77153EDA1 PUSH1 0xC0 SHL PUSH2 0x1B1D JUMP JUMPDEST PUSH2 0x1185 PUSH8 0xC52DAD5AB5980DE PUSH1 0xC0 SHL PUSH2 0x1B1D JUMP JUMPDEST DUP1 PUSH1 0x5 ADD PUSH1 0x0 SWAP1 SLOAD SWAP1 PUSH2 0x100 EXP SWAP1 DIV PUSH1 0xFF AND ISZERO PUSH2 0x11D7 JUMPI PUSH1 0x40 MLOAD PUSH32 0x8C379A000000000000000000000000000000000000000000000000000000000 DUP2 MSTORE PUSH1 0x4 ADD PUSH2 0x11CE SWAP1 PUSH2 0x2767 JUMP JUMPDEST PUSH1 0x40 MLOAD DUP1 SWAP2 SUB SWAP1 REVERT JUMPDEST PUSH2 0x11EB PUSH8 0x41E220E4787E19DB PUSH1 0xC0 SHL PUSH2 0x1B1D JUMP JUMPDEST PUSH2 0x11FF PUSH8 0xFE25EF178445CB97 PUSH1 0xC0 SHL PUSH2 0x1B1D JUMP JUMPDEST PUSH1 0x1 DUP2 PUSH1 0x5 ADD PUSH1 0x0 PUSH2 0x100 EXP DUP2 SLOAD DUP2 PUSH1 0xFF MUL NOT AND SWAP1 DUP4 ISZERO ISZERO MUL OR SWAP1 SSTORE POP PUSH2 0x1309 JUMP JUMPDEST PUSH2 0x1235 PUSH8 0xCCECC379593866BF PUSH1 0xC0 SHL PUSH2 0x1B1D JUMP JUMPDEST PUSH2 0x1249 PUSH8 0xD74803FD9E7FA8E2 PUSH1 0xC0 SHL PUSH2 0x1B1D JUMP JUMPDEST PUSH2 0x125D PUSH8 0xB2B77CC9AD2EB33A PUSH1 0xC0 SHL PUSH2 0x1B1D JUMP JUMPDEST PUSH2 0x1271 PUSH8 0x3E8BC288234B5208 PUSH1 0xC0 SHL PUSH2 0x1B1D JUMP JUMPDEST DUP1 PUSH1 0x5 ADD PUSH1 0x1 SWAP1 SLOAD SWAP1 PUSH2 0x100 EXP SWAP1 DIV PUSH1 0xFF AND ISZERO PUSH2 0x12C3 JUMPI PUSH1 0x40 MLOAD PUSH32 0x8C379A000000000000000000000000000000000000000000000000000000000 DUP2 MSTORE PUSH1 0x4 ADD PUSH2 0x12BA SWAP1 PUSH2 0x27D3 JUMP JUMPDEST PUSH1 0x40 MLOAD DUP1 SWAP2 SUB SWAP1 REVERT JUMPDEST PUSH2 0x12D7 PUSH8 0x5E042D99F7CBA067 PUSH1 0xC0 SHL PUSH2 0x1B1D JUMP JUMPDEST PUSH2 0x12EB PUSH8 0xA9B8EB59CB3E6584 PUSH1 0xC0 SHL PUSH2 0x1B1D JUMP JUMPDEST PUSH1 0x1 DUP2 PUSH1 0x5 ADD PUSH1 0x1 PUSH2 0x100 EXP DUP2 SLOAD DUP2 PUSH1 0xFF MUL NOT AND SWAP1 DUP4 ISZERO ISZERO MUL OR SWAP1 SSTORE POP JUMPDEST PUSH2 0x131D PUSH8 0x405C009ADE2DAA1D PUSH1 0xC0 SHL PUSH2 0x1B1D JUMP JUMPDEST PUSH2 0x1331 PUSH8 0xA2A8350EE468350F PUSH1 0xC0 SHL PUSH2 0x1B1D JUMP JUMPDEST CALLER PUSH20 0xFFFFFFFFFFFFFFFFFFFFFFFFFFFFFFFFFFFFFFFF AND DUP3 PUSH1 0x40 MLOAD PUSH2 0x1356 SWAP2 SWAP1 PUSH2 0x2250 JUMP JUMPDEST PUSH1 0x40 MLOAD DUP1 SWAP2 SUB SWAP1 KECCAK256 PUSH32 0x4395A2A81BD9970C2145F7A67A3D9726210C294714402030A5C33A6A538DF8D6 PUSH1 0x40 MLOAD PUSH1 0x40 MLOAD DUP1 SWAP2 SUB SWAP1 LOG3 POP POP JUMP JUMPDEST PUSH2 0x13A2 PUSH8 0x38124B916FBE2C09 PUSH1 0xC0 SHL PUSH2 0x1B1D JUMP JUMPDEST PUSH2 0x13B6 PUSH8 0x6063C6387E53F78D PUSH1 0xC0 SHL PUSH2 0x1B1D JUMP JUMPDEST PUSH2 0x13CA PUSH8 0x63A58B3CB35831F0 PUSH1 0xC0 SHL PUSH2 0x1B1D JUMP JUMPDEST PUSH2 0x13DE PUSH8 0x78C486A7830CFD57 PUSH1 0xC0 SHL PUSH2 0x1B1D JUMP JUMPDEST PUSH1 0x0 DUP2 PUSH1 0x40 MLOAD PUSH2 0x13EE SWAP2 SWAP1 PUSH2 0x2250 JUMP JUMPDEST SWAP1 DUP2 MSTORE PUSH1 0x20 ADD PUSH1 0x40 MLOAD DUP1 SWAP2 SUB SWAP1 KECCAK256 PUSH1 0x7 ADD PUSH1 0x0 SWAP1 SLOAD SWAP1 PUSH2 0x100 EXP SWAP1 DIV PUSH1 0xFF AND PUSH2 0x144C JUMPI PUSH1 0x40 MLOAD PUSH32 0x8C379A000000000000000000000000000000000000000000000000000000000 DUP2 MSTORE PUSH1 0x4 ADD PUSH2 0x1443 SWAP1 PUSH2 0x22B3 JUMP JUMPDEST PUSH1 0x40 MLOAD DUP1 SWAP2 SUB SWAP1 REVERT JUMPDEST PUSH2 0x1460 PUSH8 0x9079AB1EAE236624 PUSH1 0xC0 SHL PUSH2 0x1B1D JUMP JUMPDEST PUSH2 0x1474 PUSH8 0x48432545BE1AA544 PUSH1 0xC0 SHL PUSH2 0x1B1D JUMP JUMPDEST PUSH2 0x1488 PUSH8 0xD95DABDE3D2AF496 PUSH1 0xC0 SHL PUSH2 0x1B1D JUMP JUMPDEST PUSH1 0x0 DUP1 DUP3 PUSH1 0x40 MLOAD PUSH2 0x1499 SWAP2 SWAP1 PUSH2 0x2250 JUMP JUMPDEST SWAP1 DUP2 MSTORE PUSH1 0x20 ADD PUSH1 0x40 MLOAD DUP1 SWAP2 SUB SWAP1 KECCAK256 SWAP1 POP PUSH2 0x14BD PUSH8 0x572AC945AD1625BA PUSH1 0xC0 SHL PUSH2 0x1B1D JUMP JUMPDEST PUSH2 0x14D1 PUSH8 0x4B174D817084955C PUSH1 0xC0 SHL PUSH2 0x1B1D JUMP JUMPDEST PUSH2 0x14E5 PUSH8 0xC7BBB7E58900F75E PUSH1 0xC0 SHL PUSH2 0x1B1D JUMP JUMPDEST DUP1 PUSH1 0x1 ADD PUSH1 0x0 SWAP1 SLOAD SWAP1 PUSH2 0x100 EXP SWAP1 DIV PUSH20 0xFFFFFFFFFFFFFFFFFFFFFFFFFFFFFFFFFFFFFFFF AND PUSH20 0xFFFFFFFFFFFFFFFFFFFFFFFFFFFFFFFFFFFFFFFF AND CALLER PUSH20 0xFFFFFFFFFFFFFFFFFFFFFFFFFFFFFFFFFFFFFFFF AND EQ DUP1 ISZERO PUSH2 0x1554 JUMPI POP PUSH2 0x1553 PUSH8 0xECDF86B46286C75B PUSH1 0xC0 SHL PUSH2 0x1B20 JUMP JUMPDEST JUMPDEST DUP1 PUSH2 0x15CA JUMPI POP DUP1 PUSH1 0x2 ADD PUSH1 0x0 SWAP1 SLOAD SWAP1 PUSH2 0x100 EXP SWAP1 DIV PUSH20 0xFFFFFFFFFFFFFFFFFFFFFFFFFFFFFFFFFFFFFFFF AND PUSH20 0xFFFFFFFFFFFFFFFFFFFFFFFFFFFFFFFFFFFFFFFF AND CALLER PUSH20 0xFFFFFFFFFFFFFFFFFFFFFFFFFFFFFFFFFFFFFFFF AND EQ DUP1 ISZERO PUSH2 0x15C9 JUMPI POP PUSH2 0x15C8 PUSH8 0x1768DE6F25C29EAD PUSH1 0xC0 SHL PUSH2 0x1B20 JUMP JUMPDEST JUMPDEST JUMPDEST PUSH2 0x1609 JUMPI PUSH1 0x40 MLOAD PUSH32 0x8C379A000000000000000000000000000000000000000000000000000000000 DUP2 MSTORE PUSH1 0x4 ADD PUSH2 0x1600 SWAP1 PUSH2 0x26FB JUMP JUMPDEST PUSH1 0x40 MLOAD DUP1 SWAP2 SUB SWAP1 REVERT JUMPDEST PUSH2 0x161D PUSH8 0x87DEA25900E6143B PUSH1 0xC0 SHL PUSH2 0x1B1D JUMP JUMPDEST PUSH2 0x1631 PUSH8 0x22A79FEF3EF41B0D PUSH1 0xC0 SHL PUSH2 0x1B1D JUMP JUMPDEST PUSH2 0x1645 PUSH8 0x60EFE8AD73BB4F4A PUSH1 0xC0 SHL PUSH2 0x1B1D JUMP JUMPDEST DUP1 PUSH1 0x1 ADD PUSH1 0x0 SWAP1 SLOAD SWAP1 PUSH2 0x100 EXP SWAP1 DIV PUSH20 0xFFFFFFFFFFFFFFFFFFFFFFFFFFFFFFFFFFFFFFFF AND PUSH20 0xFFFFFFFFFFFFFFFFFFFFFFFFFFFFFFFFFFFFFFFF AND CALLER PUSH20 0xFFFFFFFFFFFFFFFFFFFFFFFFFFFFFFFFFFFFFFFF AND SUB PUSH2 0x181E JUMPI PUSH2 0x16B0 PUSH8 0xCB90125A3BA74D8E PUSH1 0xC0 SHL PUSH2 0x1B1D JUMP JUMPDEST PUSH2 0x16C4 PUSH8 0x6BBBFF9266E69CAB PUSH1 0xC0 SHL PUSH2 0x1B1D JUMP JUMPDEST PUSH2 0x16D8 PUSH8 0xDEB0C72364AC07A3 PUSH1 0xC0 SHL PUSH2 0x1B1D JUMP JUMPDEST PUSH2 0x16EC PUSH8 0x28BEFFA09E64E11 PUSH1 0xC0 SHL PUSH2 0x1B1D JUMP JUMPDEST DUP1 PUSH1 0x5 ADD PUSH1 0x2 SWAP1 SLOAD SWAP1 PUSH2 0x100 EXP SWAP1 DIV PUSH1 0xFF AND ISZERO PUSH2 0x173E JUMPI PUSH1 0x40 MLOAD PUSH32 0x8C379A000000000000000000000000000000000000000000000000000000000 DUP2 MSTORE PUSH1 0x4 ADD PUSH2 0x1735 SWAP1 PUSH2 0x283F JUMP JUMPDEST PUSH1 0x40 MLOAD DUP1 SWAP2 SUB SWAP1 REVERT JUMPDEST PUSH2 0x1752 PUSH8 0xD0F4C49E25B7024F PUSH1 0xC0 SHL PUSH2 0x1B1D JUMP JUMPDEST PUSH2 0x1766 PUSH8 0x94974B1DBF2D8440 PUSH1 0xC0 SHL PUSH2 0x1B1D JUMP JUMPDEST PUSH2 0x177A PUSH8 0x58D85901EC268154 PUSH1 0xC0 SHL PUSH2 0x1B1D JUMP JUMPDEST PUSH2 0x178E PUSH8 0xD849171B761260D7 PUSH1 0xC0 SHL PUSH2 0x1B1D JUMP JUMPDEST DUP1 PUSH1 0x3 ADD SLOAD CALLVALUE EQ PUSH2 0x17D4 JUMPI PUSH1 0x40 MLOAD PUSH32 0x8C379A000000000000000000000000000000000000000000000000000000000 DUP2 MSTORE PUSH1 0x4 ADD PUSH2 0x17CB SWAP1 PUSH2 0x28AB JUMP JUMPDEST PUSH1 0x40 MLOAD DUP1 SWAP2 SUB SWAP1 REVERT JUMPDEST PUSH2 0x17E8 PUSH8 0xAB527ECCB73562EA PUSH1 0xC0 SHL PUSH2 0x1B1D JUMP JUMPDEST PUSH2 0x17FC PUSH8 0xCCD847B6048EFA28 PUSH1 0xC0 SHL PUSH2 0x1B1D JUMP JUMPDEST PUSH1 0x1 DUP2 PUSH1 0x5 ADD PUSH1 0x2 PUSH2 0x100 EXP DUP2 SLOAD DUP2 PUSH1 0xFF MUL NOT AND SWAP1 DUP4 ISZERO ISZERO MUL OR SWAP1 SSTORE POP PUSH2 0x199C JUMP JUMPDEST PUSH2 0x1832 PUSH8 0x1E40E473EAFD2E8D PUSH1 0xC0 SHL PUSH2 0x1B1D JUMP JUMPDEST PUSH2 0x1846 PUSH8 0x957896C1C5AF143C PUSH1 0xC0 SHL PUSH2 0x1B1D JUMP JUMPDEST PUSH2 0x185A PUSH8 0xAF7E541F10E8399A PUSH1 0xC0 SHL PUSH2 0x1B1D JUMP JUMPDEST PUSH2 0x186E PUSH8 0xF5F1A3D783DB233F PUSH1 0xC0 SHL PUSH2 0x1B1D JUMP JUMPDEST DUP1 PUSH1 0x5 ADD PUSH1 0x3 SWAP1 SLOAD SWAP1 PUSH2 0x100 EXP SWAP1 DIV PUSH1 0xFF AND ISZERO PUSH2 0x18C0 JUMPI PUSH1 0x40 MLOAD PUSH32 0x8C379A000000000000000000000000000000000000000000000000000000000 DUP2 MSTORE PUSH1 0x4 ADD PUSH2 0x18B7 SWAP1 PUSH2 0x2917 JUMP JUMPDEST PUSH1 0x40 MLOAD DUP1 SWAP2 SUB SWAP1 REVERT JUMPDEST PUSH2 0x18D4 PUSH8 0x26E6ED2363C4EDD7 PUSH1 0xC0 SHL PUSH2 0x1B1D JUMP JUMPDEST PUSH2 0x18E8 PUSH8 0xFC2ACE6A59C412F5 PUSH1 0xC0 SHL PUSH2 0x1B1D JUMP JUMPDEST PUSH2 0x18FC PUSH8 0xC43C105E6CC7EBEA PUSH1 0xC0 SHL PUSH2 0x1B1D JUMP JUMPDEST PUSH2 0x1910 PUSH8 0x79417095C20D439F PUSH1 0xC0 SHL PUSH2 0x1B1D JUMP JUMPDEST DUP1 PUSH1 0x4 ADD SLOAD CALLVALUE EQ PUSH2 0x1956 JUMPI PUSH1 0x40 MLOAD PUSH32 0x8C379A000000000000000000000000000000000000000000000000000000000 DUP2 MSTORE PUSH1 0x4 ADD PUSH2 0x194D SWAP1 PUSH2 0x28AB JUMP JUMPDEST PUSH1 0x40 MLOAD DUP1 SWAP2 SUB SWAP1 REVERT JUMPDEST PUSH2 0x196A PUSH8 0x7AD433E544EE35A9 PUSH1 0xC0 SHL PUSH2 0x1B1D JUMP JUMPDEST PUSH2 0x197E PUSH8 0xD4D976DBD2115509 PUSH1 0xC0 SHL PUSH2 0x1B1D JUMP JUMPDEST PUSH1 0x1 DUP2 PUSH1 0x5 ADD PUSH1 0x3 PUSH2 0x100 EXP DUP2 SLOAD DUP2 PUSH1 0xFF MUL NOT AND SWAP1 DUP4 ISZERO ISZERO MUL OR SWAP1 SSTORE POP JUMPDEST PUSH2 0x19B0 PUSH8 0xB8A44B61F0C78403 PUSH1 0xC0 SHL PUSH2 0x1B1D JUMP JUMPDEST PUSH2 0x19C4 PUSH8 0xF3806216F40AF1E5 PUSH1 0xC0 SHL PUSH2 0x1B1D JUMP JUMPDEST CALLER PUSH20 0xFFFFFFFFFFFFFFFFFFFFFFFFFFFFFFFFFFFFFFFF AND DUP3 PUSH1 0x40 MLOAD PUSH2 0x19E9 SWAP2 SWAP1 PUSH2 0x2250 JUMP JUMPDEST PUSH1 0x40 MLOAD DUP1 SWAP2 SUB SWAP1 KECCAK256 PUSH32 0xA4063949D46DF8966B0B0DA701810CD0898AA91BBD685924F99E15A878B5B9C7 CALLVALUE PUSH1 0x40 MLOAD PUSH2 0x1A20 SWAP2 SWAP1 PUSH2 0x2937 JUMP JUMPDEST PUSH1 0x40 MLOAD DUP1 SWAP2 SUB SWAP1 LOG3 PUSH2 0x1A3C PUSH8 0x9483C66D1DFCAECF PUSH1 0xC0 SHL PUSH2 0x1B1D JUMP JUMPDEST PUSH2 0x1A50 PUSH8 0x1D70CA622EB9D8EC PUSH1 0xC0 SHL PUSH2 0x1B1D JUMP JUMPDEST DUP1 PUSH1 0x5 ADD PUSH1 0x2 SWAP1 SLOAD SWAP1 PUSH2 0x100 EXP SWAP1 DIV PUSH1 0xFF AND DUP1 ISZERO PUSH2 0x1A7C JUMPI POP DUP1 PUSH1 0x5 ADD PUSH1 0x3 SWAP1 SLOAD SWAP1 PUSH2 0x100 EXP SWAP1 DIV PUSH1 0xFF AND JUMPDEST ISZERO PUSH2 0x1B04 JUMPI PUSH2 0x1A95 PUSH8 0x861190EDE0D129F1 PUSH1 0xC0 SHL PUSH2 0x1B1D JUMP JUMPDEST PUSH2 0x1AA9 PUSH8 0xA78DFDEA9EB3DBED PUSH1 0xC0 SHL PUSH2 0x1B1D JUMP JUMPDEST PUSH2 0x1ABD PUSH8 0x2DBE107EFE60F5B9 PUSH1 0xC0 SHL PUSH2 0x1B1D JUMP JUMPDEST DUP2 PUSH1 0x40 MLOAD PUSH2 0x1ACB SWAP2 SWAP1 PUSH2 0x2250 JUMP JUMPDEST PUSH1 0x40 MLOAD DUP1 SWAP2 SUB SWAP1 KECCAK256 PUSH32 0x72FB0913C7891FA0DEC22E84667A3C8B7836815A804D0885BDCFF67898B27095 PUSH1 0x40 MLOAD PUSH1 0x40 MLOAD DUP1 SWAP2 SUB SWAP1 LOG2 PUSH2 0x1B19 JUMP JUMPDEST PUSH2 0x1B18 PUSH8 0xB2390C1BB6A61151 PUSH1 0xC0 SHL PUSH2 0x1B1D JUMP JUMPDEST JUMPDEST POP POP JUMP JUMPDEST POP JUMP JUMPDEST PUSH1 0x0 PUSH1 0x1 SWAP1 POP SWAP2 SWAP1 POP JUMP JUMPDEST PUSH1 0x40 MLOAD DUP1 PUSH2 0x160 ADD PUSH1 0x40 MSTORE DUP1 PUSH1 0x60 DUP2 MSTORE PUSH1 0x20 ADD PUSH1 0x0 PUSH20 0xFFFFFFFFFFFFFFFFFFFFFFFFFFFFFFFFFFFFFFFF AND DUP2 MSTORE PUSH1 0x20 ADD PUSH1 0x0 PUSH20 0xFFFFFFFFFFFFFFFFFFFFFFFFFFFFFFFFFFFFFFFF AND DUP2 MSTORE PUSH1 0x20 ADD PUSH1 0x0 DUP2 MSTORE PUSH1 0x20 ADD PUSH1 0x0 DUP2 MSTORE PUSH1 0x20 ADD PUSH1 0x0 ISZERO ISZERO DUP2 MSTORE PUSH1 0x20 ADD PUSH1 0x0 ISZERO ISZERO DUP2 MSTORE PUSH1 0x20 ADD PUSH1 0x0 ISZERO ISZERO DUP2 MSTORE PUSH1 0x20 ADD PUSH1 0x0 ISZERO ISZERO DUP2 MSTORE PUSH1 0x20 ADD PUSH1 0x0 DUP2 MSTORE PUSH1 0x20 ADD PUSH1 0x0 ISZERO ISZERO DUP2 MSTORE POP SWAP1 JUMP JUMPDEST PUSH1 0x0 PUSH1 0x40 MLOAD SWAP1 POP SWAP1 JUMP JUMPDEST PUSH1 0x0 DUP1 REVERT JUMPDEST PUSH1 0x0 DUP1 REVERT JUMPDEST PUSH1 0x0 DUP1 REVERT JUMPDEST PUSH1 0x0 DUP1 REVERT JUMPDEST PUSH1 0x0 PUSH1 0x1F NOT PUSH1 0x1F DUP4 ADD AND SWAP1 POP SWAP2 SWAP1 POP JUMP JUMPDEST PUSH32 0x4E487B7100000000000000000000000000000000000000000000000000000000 PUSH1 0x0 MSTORE PUSH1 0x41 PUSH1 0x4 MSTORE PUSH1 0x24 PUSH1 0x0 REVERT JUMPDEST PUSH2 0x1C22 DUP3 PUSH2 0x1BD9 JUMP JUMPDEST DUP2 ADD DUP2 DUP2 LT PUSH8 0xFFFFFFFFFFFFFFFF DUP3 GT OR ISZERO PUSH2 0x1C41 JUMPI PUSH2 0x1C40 PUSH2 0x1BEA JUMP JUMPDEST JUMPDEST DUP1 PUSH1 0x40 MSTORE POP POP POP JUMP JUMPDEST PUSH1 0x0 PUSH2 0x1C54 PUSH2 0x1BBB JUMP JUMPDEST SWAP1 POP PUSH2 0x1C60 DUP3 DUP3 PUSH2 0x1C19 JUMP JUMPDEST SWAP2 SWAP1 POP JUMP JUMPDEST PUSH1 0x0 PUSH8 0xFFFFFFFFFFFFFFFF DUP3 GT ISZERO PUSH2 0x1C80 JUMPI PUSH2 0x1C7F PUSH2 0x1BEA JUMP JUMPDEST JUMPDEST PUSH2 0x1C89 DUP3 PUSH2 0x1BD9 JUMP JUMPDEST SWAP1 POP PUSH1 0x20 DUP2 ADD SWAP1 POP SWAP2 SWAP1 POP JUMP JUMPDEST DUP3 DUP2 DUP4 CALLDATACOPY PUSH1 0x0 DUP4 DUP4 ADD MSTORE POP POP POP JUMP JUMPDEST PUSH1 0x0 PUSH2 0x1CB8 PUSH2 0x1CB3 DUP5 PUSH2 0x1C65 JUMP JUMPDEST PUSH2 0x1C4A JUMP JUMPDEST SWAP1 POP DUP3 DUP2 MSTORE PUSH1 0x20 DUP2 ADD DUP5 DUP5 DUP5 ADD GT ISZERO PUSH2 0x1CD4 JUMPI PUSH2 0x1CD3 PUSH2 0x1BD4 JUMP JUMPDEST JUMPDEST PUSH2 0x1CDF DUP5 DUP3 DUP6 PUSH2 0x1C96 JUMP JUMPDEST POP SWAP4 SWAP3 POP POP POP JUMP JUMPDEST PUSH1 0x0 DUP3 PUSH1 0x1F DUP4 ADD SLT PUSH2 0x1CFC JUMPI PUSH2 0x1CFB PUSH2 0x1BCF JUMP JUMPDEST JUMPDEST DUP2 CALLDATALOAD PUSH2 0x1D0C DUP5 DUP3 PUSH1 0x20 DUP7 ADD PUSH2 0x1CA5 JUMP JUMPDEST SWAP2 POP POP SWAP3 SWAP2 POP POP JUMP JUMPDEST PUSH1 0x0 PUSH1 0x20 DUP3 DUP5 SUB SLT ISZERO PUSH2 0x1D2B JUMPI PUSH2 0x1D2A PUSH2 0x1BC5 JUMP JUMPDEST JUMPDEST PUSH1 0x0 DUP3 ADD CALLDATALOAD PUSH8 0xFFFFFFFFFFFFFFFF DUP2 GT ISZERO PUSH2 0x1D49 JUMPI PUSH2 0x1D48 PUSH2 0x1BCA JUMP JUMPDEST JUMPDEST PUSH2 0x1D55 DUP5 DUP3 DUP6 ADD PUSH2 0x1CE7 JUMP JUMPDEST SWAP2 POP POP SWAP3 SWAP2 POP POP JUMP JUMPDEST PUSH1 0x0 DUP2 MLOAD SWAP1 POP SWAP2 SWAP1 POP JUMP JUMPDEST PUSH1 0x0 DUP3 DUP3 MSTORE PUSH1 0x20 DUP3 ADD SWAP1 POP SWAP3 SWAP2 POP POP JUMP JUMPDEST PUSH1 0x0 JUMPDEST DUP4 DUP2 LT ISZERO PUSH2 0x1D98 JUMPI DUP1 DUP3 ADD MLOAD DUP2 DUP5 ADD MSTORE PUSH1 0x20 DUP2 ADD SWAP1 POP PUSH2 0x1D7D JUMP JUMPDEST PUSH1 0x0 DUP5 DUP5 ADD MSTORE POP POP POP POP JUMP JUMPDEST PUSH1 0x0 PUSH2 0x1DAF DUP3 PUSH2 0x1D5E JUMP JUMPDEST PUSH2 0x1DB9 DUP2 DUP6 PUSH2 0x1D69 JUMP JUMPDEST SWAP4 POP PUSH2 0x1DC9 DUP2 DUP6 PUSH1 0x20 DUP7 ADD PUSH2 0x1D7A JUMP JUMPDEST PUSH2 0x1DD2 DUP2 PUSH2 0x1BD9 JUMP JUMPDEST DUP5 ADD SWAP2 POP POP SWAP3 SWAP2 POP POP JUMP JUMPDEST PUSH1 0x0 PUSH20 0xFFFFFFFFFFFFFFFFFFFFFFFFFFFFFFFFFFFFFFFF DUP3 AND SWAP1 POP SWAP2 SWAP1 POP JUMP JUMPDEST PUSH1 0x0 PUSH2 0x1E08 DUP3 PUSH2 0x1DDD JUMP JUMPDEST SWAP1 POP SWAP2 SWAP1 POP JUMP JUMPDEST PUSH2 0x1E18 DUP2 PUSH2 0x1DFD JUMP JUMPDEST DUP3 MSTORE POP POP JUMP JUMPDEST PUSH1 0x0 DUP2 SWAP1 POP SWAP2 SWAP1 POP JUMP JUMPDEST PUSH2 0x1E31 DUP2 PUSH2 0x1E1E JUMP JUMPDEST DUP3 MSTORE POP POP JUMP JUMPDEST PUSH1 0x0 DUP2 ISZERO ISZERO SWAP1 POP SWAP2 SWAP1 POP JUMP JUMPDEST PUSH2 0x1E4C DUP2 PUSH2 0x1E37 JUMP JUMPDEST DUP3 MSTORE POP POP JUMP JUMPDEST PUSH1 0x0 PUSH2 0x160 DUP4 ADD PUSH1 0x0 DUP4 ADD MLOAD DUP5 DUP3 SUB PUSH1 0x0 DUP7 ADD MSTORE PUSH2 0x1E70 DUP3 DUP3 PUSH2 0x1DA4 JUMP JUMPDEST SWAP2 POP POP PUSH1 0x20 DUP4 ADD MLOAD PUSH2 0x1E85 PUSH1 0x20 DUP7 ADD DUP3 PUSH2 0x1E0F JUMP JUMPDEST POP PUSH1 0x40 DUP4 ADD MLOAD PUSH2 0x1E98 PUSH1 0x40 DUP7 ADD DUP3 PUSH2 0x1E0F JUMP JUMPDEST POP PUSH1 0x60 DUP4 ADD MLOAD PUSH2 0x1EAB PUSH1 0x60 DUP7 ADD DUP3 PUSH2 0x1E28 JUMP JUMPDEST POP PUSH1 0x80 DUP4 ADD MLOAD PUSH2 0x1EBE PUSH1 0x80 DUP7 ADD DUP3 PUSH2 0x1E28 JUMP JUMPDEST POP PUSH1 0xA0 DUP4 ADD MLOAD PUSH2 0x1ED1 PUSH1 0xA0 DUP7 ADD DUP3 PUSH2 0x1E43 JUMP JUMPDEST POP PUSH1 0xC0 DUP4 ADD MLOAD PUSH2 0x1EE4 PUSH1 0xC0 DUP7 ADD DUP3 PUSH2 0x1E43 JUMP JUMPDEST POP PUSH1 0xE0 DUP4 ADD MLOAD PUSH2 0x1EF7 PUSH1 0xE0 DUP7 ADD DUP3 PUSH2 0x1E43 JUMP JUMPDEST POP PUSH2 0x100 DUP4 ADD MLOAD PUSH2 0x1F0C PUSH2 0x100 DUP7 ADD DUP3 PUSH2 0x1E43 JUMP JUMPDEST POP PUSH2 0x120 DUP4 ADD MLOAD PUSH2 0x1F21 PUSH2 0x120 DUP7 ADD DUP3 PUSH2 0x1E28 JUMP JUMPDEST POP PUSH2 0x140 DUP4 ADD MLOAD PUSH2 0x1F36 PUSH2 0x140 DUP7 ADD DUP3 PUSH2 0x1E43 JUMP JUMPDEST POP DUP1 SWAP2 POP POP SWAP3 SWAP2 POP POP JUMP JUMPDEST PUSH1 0x0 PUSH1 0x20 DUP3 ADD SWAP1 POP DUP2 DUP2 SUB PUSH1 0x0 DUP4 ADD MSTORE PUSH2 0x1F5B DUP2 DUP5 PUSH2 0x1E52 JUMP JUMPDEST SWAP1 POP SWAP3 SWAP2 POP POP JUMP JUMPDEST PUSH1 0x0 DUP3 DUP3 MSTORE PUSH1 0x20 DUP3 ADD SWAP1 POP SWAP3 SWAP2 POP POP JUMP JUMPDEST PUSH1 0x0 PUSH2 0x1F7F DUP3 PUSH2 0x1D5E JUMP JUMPDEST PUSH2 0x1F89 DUP2 DUP6 PUSH2 0x1F63 JUMP JUMPDEST SWAP4 POP PUSH2 0x1F99 DUP2 DUP6 PUSH1 0x20 DUP7 ADD PUSH2 0x1D7A JUMP JUMPDEST PUSH2 0x1FA2 DUP2 PUSH2 0x1BD9 JUMP JUMPDEST DUP5 ADD SWAP2 POP POP SWAP3 SWAP2 POP POP JUMP JUMPDEST PUSH2 0x1FB6 DUP2 PUSH2 0x1DFD JUMP JUMPDEST DUP3 MSTORE POP POP JUMP JUMPDEST PUSH2 0x1FC5 DUP2 PUSH2 0x1E1E JUMP JUMPDEST DUP3 MSTORE POP POP JUMP JUMPDEST PUSH2 0x1FD4 DUP2 PUSH2 0x1E37 JUMP JUMPDEST DUP3 MSTORE POP POP JUMP JUMPDEST PUSH1 0x0 PUSH2 0x160 DUP3 ADD SWAP1 POP DUP2 DUP2 SUB PUSH1 0x0 DUP4 ADD MSTORE PUSH2 0x1FF5 DUP2 DUP15 PUSH2 0x1F74 JUMP JUMPDEST SWAP1 POP PUSH2 0x2004 PUSH1 0x20 DUP4 ADD DUP14 PUSH2 0x1FAD JUMP JUMPDEST PUSH2 0x2011 PUSH1 0x40 DUP4 ADD DUP13 PUSH2 0x1FAD JUMP JUMPDEST PUSH2 0x201E PUSH1 0x60 DUP4 ADD DUP12 PUSH2 0x1FBC JUMP JUMPDEST PUSH2 0x202B PUSH1 0x80 DUP4 ADD DUP11 PUSH2 0x1FBC JUMP JUMPDEST PUSH2 0x2038 PUSH1 0xA0 DUP4 ADD DUP10 PUSH2 0x1FCB JUMP JUMPDEST PUSH2 0x2045 PUSH1 0xC0 DUP4 ADD DUP9 PUSH2 0x1FCB JUMP JUMPDEST PUSH2 0x2052 PUSH1 0xE0 DUP4 ADD DUP8 PUSH2 0x1FCB JUMP JUMPDEST PUSH2 0x2060 PUSH2 0x100 DUP4 ADD DUP7 PUSH2 0x1FCB JUMP JUMPDEST PUSH2 0x206E PUSH2 0x120 DUP4 ADD DUP6 PUSH2 0x1FBC JUMP JUMPDEST PUSH2 0x207C PUSH2 0x140 DUP4 ADD DUP5 PUSH2 0x1FCB JUMP JUMPDEST SWAP13 SWAP12 POP POP POP POP POP POP POP POP POP POP POP POP JUMP JUMPDEST PUSH1 0x0 PUSH1 0x20 DUP3 ADD SWAP1 POP PUSH2 0x20A1 PUSH1 0x0 DUP4 ADD DUP5 PUSH2 0x1FCB JUMP JUMPDEST SWAP3 SWAP2 POP POP JUMP JUMPDEST PUSH2 0x20B0 DUP2 PUSH2 0x1DFD JUMP JUMPDEST DUP2 EQ PUSH2 0x20BB JUMPI PUSH1 0x0 DUP1 REVERT JUMPDEST POP JUMP JUMPDEST PUSH1 0x0 DUP2 CALLDATALOAD SWAP1 POP PUSH2 0x20CD DUP2 PUSH2 0x20A7 JUMP JUMPDEST SWAP3 SWAP2 POP POP JUMP JUMPDEST PUSH2 0x20DC DUP2 PUSH2 0x1E1E JUMP JUMPDEST DUP2 EQ PUSH2 0x20E7 JUMPI PUSH1 0x0 DUP1 REVERT JUMPDEST POP JUMP JUMPDEST PUSH1 0x0 DUP2 CALLDATALOAD SWAP1 POP PUSH2 0x20F9 DUP2 PUSH2 0x20D3 JUMP JUMPDEST SWAP3 SWAP2 POP POP JUMP JUMPDEST PUSH1 0x0 DUP1 PUSH1 0x40 DUP4 DUP6 SUB SLT ISZERO PUSH2 0x2116 JUMPI PUSH2 0x2115 PUSH2 0x1BC5 JUMP JUMPDEST JUMPDEST PUSH1 0x0 PUSH2 0x2124 DUP6 DUP3 DUP7 ADD PUSH2 0x20BE JUMP JUMPDEST SWAP3 POP POP PUSH1 0x20 PUSH2 0x2135 DUP6 DUP3 DUP7 ADD PUSH2 0x20EA JUMP JUMPDEST SWAP2 POP POP SWAP3 POP SWAP3 SWAP1 POP JUMP JUMPDEST PUSH1 0x0 PUSH1 0x20 DUP3 ADD SWAP1 POP DUP2 DUP2 SUB PUSH1 0x0 DUP4 ADD MSTORE PUSH2 0x2159 DUP2 DUP5 PUSH2 0x1F74 JUMP JUMPDEST SWAP1 POP SWAP3 SWAP2 POP POP JUMP JUMPDEST PUSH1 0x0 DUP1 PUSH1 0x0 DUP1 PUSH1 0x0 PUSH1 0xA0 DUP7 DUP9 SUB SLT ISZERO PUSH2 0x217D JUMPI PUSH2 0x217C PUSH2 0x1BC5 JUMP JUMPDEST JUMPDEST PUSH1 0x0 DUP7 ADD CALLDATALOAD PUSH8 0xFFFFFFFFFFFFFFFF DUP2 GT ISZERO PUSH2 0x219B JUMPI PUSH2 0x219A PUSH2 0x1BCA JUMP JUMPDEST JUMPDEST PUSH2 0x21A7 DUP9 DUP3 DUP10 ADD PUSH2 0x1CE7 JUMP JUMPDEST SWAP6 POP POP PUSH1 0x20 DUP7 ADD CALLDATALOAD PUSH8 0xFFFFFFFFFFFFFFFF DUP2 GT ISZERO PUSH2 0x21C8 JUMPI PUSH2 0x21C7 PUSH2 0x1BCA JUMP JUMPDEST JUMPDEST PUSH2 0x21D4 DUP9 DUP3 DUP10 ADD PUSH2 0x1CE7 JUMP JUMPDEST SWAP5 POP POP PUSH1 0x40 PUSH2 0x21E5 DUP9 DUP3 DUP10 ADD PUSH2 0x20BE JUMP JUMPDEST SWAP4 POP POP PUSH1 0x60 PUSH2 0x21F6 DUP9 DUP3 DUP10 ADD PUSH2 0x20EA JUMP JUMPDEST SWAP3 POP POP PUSH1 0x80 PUSH2 0x2207 DUP9 DUP3 DUP10 ADD PUSH2 0x20EA JUMP JUMPDEST SWAP2 POP POP SWAP3 SWAP6 POP SWAP3 SWAP6 SWAP1 SWAP4 POP JUMP JUMPDEST PUSH1 0x0 DUP2 SWAP1 POP SWAP3 SWAP2 POP POP JUMP JUMPDEST PUSH1 0x0 PUSH2 0x222A DUP3 PUSH2 0x1D5E JUMP JUMPDEST PUSH2 0x2234 DUP2 DUP6 PUSH2 0x2214 JUMP JUMPDEST SWAP4 POP PUSH2 0x2244 DUP2 DUP6 PUSH1 0x20 DUP7 ADD PUSH2 0x1D7A JUMP JUMPDEST DUP1 DUP5 ADD SWAP2 POP POP SWAP3 SWAP2 POP POP JUMP JUMPDEST PUSH1 0x0 PUSH2 0x225C DUP3 DUP5 PUSH2 0x221F JUMP JUMPDEST SWAP2 POP DUP2 SWAP1 POP SWAP3 SWAP2 POP POP JUMP JUMPDEST PUSH32 0x436F6E747261637420646F6573206E6F74206578697374000000000000000000 PUSH1 0x0 DUP3 ADD MSTORE POP JUMP JUMPDEST PUSH1 0x0 PUSH2 0x229D PUSH1 0x17 DUP4 PUSH2 0x1F63 JUMP JUMPDEST SWAP2 POP PUSH2 0x22A8 DUP3 PUSH2 0x2267 JUMP JUMPDEST PUSH1 0x20 DUP3 ADD SWAP1 POP SWAP2 SWAP1 POP JUMP JUMPDEST PUSH1 0x0 PUSH1 0x20 DUP3 ADD SWAP1 POP DUP2 DUP2 SUB PUSH1 0x0 DUP4 ADD MSTORE PUSH2 0x22CC DUP2 PUSH2 0x2290 JUMP JUMPDEST SWAP1 POP SWAP2 SWAP1 POP JUMP JUMPDEST PUSH32 0x4E487B7100000000000000000000000000000000000000000000000000000000 PUSH1 0x0 MSTORE PUSH1 0x22 PUSH1 0x4 MSTORE PUSH1 0x24 PUSH1 0x0 REVERT JUMPDEST PUSH1 0x0 PUSH1 0x2 DUP3 DIV SWAP1 POP PUSH1 0x1 DUP3 AND DUP1 PUSH2 0x231A JUMPI PUSH1 0x7F DUP3 AND SWAP2 POP JUMPDEST PUSH1 0x20 DUP3 LT DUP2 SUB PUSH2 0x232D JUMPI PUSH2 0x232C PUSH2 0x22D3 JUMP JUMPDEST JUMPDEST POP SWAP2 SWAP1 POP JUMP JUMPDEST PUSH32 0x436F6E747261637420494420616C726561647920657869737473000000000000 PUSH1 0x0 DUP3 ADD MSTORE POP JUMP JUMPDEST PUSH1 0x0 PUSH2 0x2369 PUSH1 0x1A DUP4 PUSH2 0x1F63 JUMP JUMPDEST SWAP2 POP PUSH2 0x2374 DUP3 PUSH2 0x2333 JUMP JUMPDEST PUSH1 0x20 DUP3 ADD SWAP1 POP SWAP2 SWAP1 POP JUMP JUMPDEST PUSH1 0x0 PUSH1 0x20 DUP3 ADD SWAP1 POP DUP2 DUP2 SUB PUSH1 0x0 DUP4 ADD MSTORE PUSH2 0x2398 DUP2 PUSH2 0x235C JUMP JUMPDEST SWAP1 POP SWAP2 SWAP1 POP JUMP JUMPDEST PUSH32 0x436F756E74657270617274792063616E6E6F742062652073616D652061732069 PUSH1 0x0 DUP3 ADD MSTORE PUSH32 0x6E69746961746F72000000000000000000000000000000000000000000000000 PUSH1 0x20 DUP3 ADD MSTORE POP JUMP JUMPDEST PUSH1 0x0 PUSH2 0x23FB PUSH1 0x28 DUP4 PUSH2 0x1F63 JUMP JUMPDEST SWAP2 POP PUSH2 0x2406 DUP3 PUSH2 0x239F JUMP JUMPDEST PUSH1 0x40 DUP3 ADD SWAP1 POP SWAP2 SWAP1 POP JUMP JUMPDEST PUSH1 0x0 PUSH1 0x20 DUP3 ADD SWAP1 POP DUP2 DUP2 SUB PUSH1 0x0 DUP4 ADD MSTORE PUSH2 0x242A DUP2 PUSH2 0x23EE JUMP JUMPDEST SWAP1 POP SWAP2 SWAP1 POP JUMP JUMPDEST PUSH1 0x0 DUP2 SWAP1 POP DUP2 PUSH1 0x0 MSTORE PUSH1 0x20 PUSH1 0x0 KECCAK256 SWAP1 POP SWAP2 SWAP1 POP JUMP JUMPDEST PUSH1 0x0 PUSH1 0x20 PUSH1 0x1F DUP4 ADD DIV SWAP1 POP SWAP2 SWAP1 POP JUMP JUMPDEST PUSH1 0x0 DUP3 DUP3 SHL SWAP1 POP SWAP3 SWAP2 POP POP JUMP JUMPDEST PUSH1 0x0 PUSH1 0x8 DUP4 MUL PUSH2 0x2493 PUSH32 0xFFFFFFFFFFFFFFFFFFFFFFFFFFFFFFFFFFFFFFFFFFFFFFFFFFFFFFFFFFFFFFFF DUP3 PUSH2 0x2456 JUMP JUMPDEST PUSH2 0x249D DUP7 DUP4 PUSH2 0x2456 JUMP JUMPDEST SWAP6 POP DUP1 NOT DUP5 AND SWAP4 POP DUP1 DUP7 AND DUP5 OR SWAP3 POP POP POP SWAP4 SWAP3 POP POP POP JUMP JUMPDEST PUSH1 0x0 DUP2 SWAP1 POP SWAP2 SWAP1 POP JUMP JUMPDEST PUSH1 0x0 PUSH2 0x24DA PUSH2 0x24D5 PUSH2 0x24D0 DUP5 PUSH2 0x1E1E JUMP JUMPDEST PUSH2 0x24B5 JUMP JUMPDEST PUSH2 0x1E1E JUMP JUMPDEST SWAP1 POP SWAP2 SWAP1 POP JUMP JUMPDEST PUSH1 0x0 DUP2 SWAP1 POP SWAP2 SWAP1 POP JUMP JUMPDEST PUSH2 0x24F4 DUP4 PUSH2 0x24BF JUMP JUMPDEST PUSH2 0x2508 PUSH2 0x2500 DUP3 PUSH2 0x24E1 JUMP JUMPDEST DUP5 DUP5 SLOAD PUSH2 0x2463 JUMP JUMPDEST DUP3 SSTORE POP POP POP POP JUMP JUMPDEST PUSH1 0x0 SWAP1 JUMP JUMPDEST PUSH2 0x251D PUSH2 0x2510 JUMP JUMPDEST PUSH2 0x2528 DUP2 DUP5 DUP5 PUSH2 0x24EB JUMP JUMPDEST POP POP POP JUMP JUMPDEST JUMPDEST DUP2 DUP2 LT ISZERO PUSH2 0x254C JUMPI PUSH2 0x2541 PUSH1 0x0 DUP3 PUSH2 0x2515 JUMP JUMPDEST PUSH1 0x1 DUP2 ADD SWAP1 POP PUSH2 0x252E JUMP JUMPDEST POP POP JUMP JUMPDEST PUSH1 0x1F DUP3 GT ISZERO PUSH2 0x2591 JUMPI PUSH2 0x2562 DUP2 PUSH2 0x2431 JUMP JUMPDEST PUSH2 0x256B DUP5 PUSH2 0x2446 JUMP JUMPDEST DUP2 ADD PUSH1 0x20 DUP6 LT ISZERO PUSH2 0x257A JUMPI DUP2 SWAP1 POP JUMPDEST PUSH2 0x258E PUSH2 0x2586 DUP6 PUSH2 0x2446 JUMP JUMPDEST DUP4 ADD DUP3 PUSH2 0x252D JUMP JUMPDEST POP POP JUMPDEST POP POP POP JUMP JUMPDEST PUSH1 0x0 DUP3 DUP3 SHR SWAP1 POP SWAP3 SWAP2 POP POP JUMP JUMPDEST PUSH1 0x0 PUSH2 0x25B4 PUSH1 0x0 NOT DUP5 PUSH1 0x8 MUL PUSH2 0x2596 JUMP JUMPDEST NOT DUP1 DUP4 AND SWAP2 POP POP SWAP3 SWAP2 POP POP JUMP JUMPDEST PUSH1 0x0 PUSH2 0x25CD DUP4 DUP4 PUSH2 0x25A3 JUMP JUMPDEST SWAP2 POP DUP3 PUSH1 0x2 MUL DUP3 OR SWAP1 POP SWAP3 SWAP2 POP POP JUMP JUMPDEST PUSH2 0x25E6 DUP3 PUSH2 0x1D5E JUMP JUMPDEST PUSH8 0xFFFFFFFFFFFFFFFF DUP2 GT ISZERO PUSH2 0x25FF JUMPI PUSH2 0x25FE PUSH2 0x1BEA JUMP JUMPDEST JUMPDEST PUSH2 0x2609 DUP3 SLOAD PUSH2 0x2302 JUMP JUMPDEST PUSH2 0x2614 DUP3 DUP3 DUP6 PUSH2 0x2550 JUMP JUMPDEST PUSH1 0x0 PUSH1 0x20 SWAP1 POP PUSH1 0x1F DUP4 GT PUSH1 0x1 DUP2 EQ PUSH2 0x2647 JUMPI PUSH1 0x0 DUP5 ISZERO PUSH2 0x2635 JUMPI DUP3 DUP8 ADD MLOAD SWAP1 POP JUMPDEST PUSH2 0x263F DUP6 DUP3 PUSH2 0x25C1 JUMP JUMPDEST DUP7 SSTORE POP PUSH2 0x26A7 JUMP JUMPDEST PUSH1 0x1F NOT DUP5 AND PUSH2 0x2655 DUP7 PUSH2 0x2431 JUMP JUMPDEST PUSH1 0x0 JUMPDEST DUP3 DUP2 LT ISZERO PUSH2 0x267D JUMPI DUP5 DUP10 ADD MLOAD DUP3 SSTORE PUSH1 0x1 DUP3 ADD SWAP2 POP PUSH1 0x20 DUP6 ADD SWAP5 POP PUSH1 0x20 DUP2 ADD SWAP1 POP PUSH2 0x2658 JUMP JUMPDEST DUP7 DUP4 LT ISZERO PUSH2 0x269A JUMPI DUP5 DUP10 ADD MLOAD PUSH2 0x2696 PUSH1 0x1F DUP10 AND DUP3 PUSH2 0x25A3 JUMP JUMPDEST DUP4 SSTORE POP JUMPDEST PUSH1 0x1 PUSH1 0x2 DUP9 MUL ADD DUP9 SSTORE POP POP POP JUMPDEST POP POP POP POP POP POP JUMP JUMPDEST PUSH32 0x4E6F74206120706172747920746F207468697320636F6E747261637400000000 PUSH1 0x0 DUP3 ADD MSTORE POP JUMP JUMPDEST PUSH1 0x0 PUSH2 0x26E5 PUSH1 0x1C DUP4 PUSH2 0x1F63 JUMP JUMPDEST SWAP2 POP PUSH2 0x26F0 DUP3 PUSH2 0x26AF JUMP JUMPDEST PUSH1 0x20 DUP3 ADD SWAP1 POP SWAP2 SWAP1 POP JUMP JUMPDEST PUSH1 0x0 PUSH1 0x20 DUP3 ADD SWAP1 POP DUP2 DUP2 SUB PUSH1 0x0 DUP4 ADD MSTORE PUSH2 0x2714 DUP2 PUSH2 0x26D8 JUMP JUMPDEST SWAP1 POP SWAP2 SWAP1 POP JUMP JUMPDEST PUSH32 0x416C7265616479207369676E656420627920696E69746961746F720000000000 PUSH1 0x0 DUP3 ADD MSTORE POP JUMP JUMPDEST PUSH1 0x0 PUSH2 0x2751 PUSH1 0x1B DUP4 PUSH2 0x1F63 JUMP JUMPDEST SWAP2 POP PUSH2 0x275C DUP3 PUSH2 0x271B JUMP JUMPDEST PUSH1 0x20 DUP3 ADD SWAP1 POP SWAP2 SWAP1 POP JUMP JUMPDEST PUSH1 0x0 PUSH1 0x20 DUP3 ADD SWAP1 POP DUP2 DUP2 SUB PUSH1 0x0 DUP4 ADD MSTORE PUSH2 0x2780 DUP2 PUSH2 0x2744 JUMP JUMPDEST SWAP1 POP SWAP2 SWAP1 POP JUMP JUMPDEST PUSH32 0x416C7265616479207369676E656420627920636F756E74657270617274790000 PUSH1 0x0 DUP3 ADD MSTORE POP JUMP JUMPDEST PUSH1 0x0 PUSH2 0x27BD PUSH1 0x1E DUP4 PUSH2 0x1F63 JUMP JUMPDEST SWAP2 POP PUSH2 0x27C8 DUP3 PUSH2 0x2787 JUMP JUMPDEST PUSH1 0x20 DUP3 ADD SWAP1 POP SWAP2 SWAP1 POP JUMP JUMPDEST PUSH1 0x0 PUSH1 0x20 DUP3 ADD SWAP1 POP DUP2 DUP2 SUB PUSH1 0x0 DUP4 ADD MSTORE PUSH2 0x27EC DUP2 PUSH2 0x27B0 JUMP JUMPDEST SWAP1 POP SWAP2 SWAP1 POP JUMP JUMPDEST PUSH32 0x416C7265616479207061696420627920696E69746961746F7200000000000000 PUSH1 0x0 DUP3 ADD MSTORE POP JUMP JUMPDEST PUSH1 0x0 PUSH2 0x2829 PUSH1 0x19 DUP4 PUSH2 0x1F63 JUMP JUMPDEST SWAP2 POP PUSH2 0x2834 DUP3 PUSH2 0x27F3 JUMP JUMPDEST PUSH1 0x20 DUP3 ADD SWAP1 POP SWAP2 SWAP1 POP JUMP JUMPDEST PUSH1 0x0 PUSH1 0x20 DUP3 ADD SWAP1 POP DUP2 DUP2 SUB PUSH1 0x0 DUP4 ADD MSTORE PUSH2 0x2858 DUP2 PUSH2 0x281C JUMP JUMPDEST SWAP1 POP SWAP2 SWAP1 POP JUMP JUMPDEST PUSH32 0x496E636F7272656374207061796D656E7420616D6F756E740000000000000000 PUSH1 0x0 DUP3 ADD MSTORE POP JUMP JUMPDEST PUSH1 0x0 PUSH2 0x2895 PUSH1 0x18 DUP4 PUSH2 0x1F63 JUMP JUMPDEST SWAP2 POP PUSH2 0x28A0 DUP3 PUSH2 0x285F JUMP JUMPDEST PUSH1 0x20 DUP3 ADD SWAP1 POP SWAP2 SWAP1 POP JUMP JUMPDEST PUSH1 0x0 PUSH1 0x20 DUP3 ADD SWAP1 POP DUP2 DUP2 SUB PUSH1 0x0 DUP4 ADD MSTORE PUSH2 0x28C4 DUP2 PUSH2 0x2888 JUMP JUMPDEST SWAP1 POP SWAP2 SWAP1 POP JUMP JUMPDEST PUSH32 0x416C7265616479207061696420627920636F756E746572706172747900000000 PUSH1 0x0 DUP3 ADD MSTORE POP JUMP JUMPDEST PUSH1 0x0 PUSH2 0x2901 PUSH1 0x1C DUP4 PUSH2 0x1F63 JUMP JUMPDEST SWAP2 POP PUSH2 0x290C DUP3 PUSH2 0x28CB JUMP JUMPDEST PUSH1 0x20 DUP3 ADD SWAP1 POP SWAP2 SWAP1 POP JUMP JUMPDEST PUSH1 0x0 PUSH1 0x20 DUP3 ADD SWAP1 POP DUP2 DUP2 SUB PUSH1 0x0 DUP4 ADD MSTORE PUSH2 0x2930 DUP2 PUSH2 0x28F4 JUMP JUMPDEST SWAP1 POP SWAP2 SWAP1 POP JUMP JUMPDEST PUSH1 0x0 PUSH1 0x20 DUP3 ADD SWAP1 POP PUSH2 0x294C PUSH1 0x0 DUP4 ADD DUP5 PUSH2 0x1FBC JUMP JUMPDEST SWAP3 SWAP2 POP POP JUMP INVALID LOG2 PUSH5 0x6970667358 0x22 SLT KECCAK256 CREATE 0xC1 TSTORE SGT PUSH28 0x416678446629FED8065242F5383D093CFD64A358DB8E2F8384C45F64 PUSH20 0x6F6C634300081800330000000000000000000000 "},"methodIdentifiers":{"contracts(string)":"8c5b8385","getContract(string)":"35817773","isFullyPaid(string)":"b0fc7f8c","makePayment(string)":"f9e823e6","registerContract(string,string,address,uint256,uint256)":"c3a538f1","signContract(string)":"c63576e4","userContracts(address,uint256)":"b789003d"}}}}}